:10000000021F8602007A53EFFE323202001253EFD3
:10001000FD323202000A53EFFB323202001A53EF74
:02002000FE32AE
:100023000221DF90024FE0FCA3E0FDED1D70011CF7
:1000330014AA044C70F5EF1F70011E144E70E422D5
:0E00430002245C9001FFE585F02253EFFD32B0
:06005300020006C2AF220C
:06005B0002000ED2AF22EC
:1000630002001ED3EF9400EE64809480400122C30B
:0A007300E49FFFE49EFE22C2CA32A1
:0300830002001662
:03008B0002247ECE
:0300930002214007
:03009B0002004D13
:1000A300022390020467E86480F8E933E8336011BF
:1000B3000460F0ED33EC337009E8FCE9FDEAFEEB94
:1000C300FF220460DED3EB9FEA9EE99DE8C2E78C42
:1000D300F0C2F795F0400CE8CCF8E9CDF9EACEFA96
:1000E300EBCFFB12043285D0F05804700320D5B354
:1000F300E80470075002B2D502047192D5EC046093
:10010300F7E4CCC0E0C398F8603B94186008400D56
:10011300D0E0FB020449E4FBFAC9FC8028E830E4A0
:1001230006E4C9FBE4CAFCE830E305E4C9CACBFC36
:10013300E854076010F8C3E913F9EA13FAEB13FB69
:10014300EC13FCD8F130F52FC3E49CFCEF9BFFEEDE
:100153009AFEED99FDD0E0FBEF4E4D4C701222DB81
:100163000302046EEC2CFCEF33FFEE33FEED33FDA4
:10017300ED30E7EB020449EF2BFFEE3AFEED39FDDC
:10018300D0E0FB50130BBB0003020471ED13FDEE33
:1001930013FEEF13FFEC13FC020449EC4D6011E86E
:1001A300497017ED33EC3304600DE4FCFFFEFD22D0
:1001B300E933E8330470F802046712043258046028
:1001C30009E4CC2481500628500902047128400315
:1001D30002046EC0E0EB4A7044B98006D0E0FB0233
:1001E300045DEF4E701CBD8008EBFFEAFEE9FD8065
:1001F300EBE98DF0A4FEE5F0020287E9CDF9EAFE12
:10020300EBFFEF89F0A4FCE5F0CE89F0A42EFFE428
:1002130035F0CD89F0A42DFEE435F08067EF4E7004
:1002230005BD80D780C3EF8BF0A4ACF0EE8BF0A4B8
:100233002CFCE435F0F8EF8AF0A42CE5F038FCE46C
:1002430033CB8DF0A42CFCE5F03BF8EE8AF0A42C24
:10025300FCE5F038F8E433CF89F0A42CFCE5F03862
:10026300CF3400CE89F0A42FFFE5F03EFEE433C97E
:100273008DF0A42EFEE5F039CD8AF0A42FFFE5F032
:100283003EFEE43DFD33D0E0FB50070BBB000F0205
:100293000471EC2CFCEF33FFEE33FEED33FD02046F
:1002A30049020471EC5D046005E85904700302041B
:1002B30067120432580460F6EC4860F2EC7004FDF7
:1002C300FEFF22C860DB2481C85009C39860025036
:1002D3000602046E9850CAF582E9294B4A7005ABB1
:1002E3008202045D75F0007C1A7880C3EF9BEE9A5E
:1002F300ED99400DC3EF9BFFEE9AFEED99FDE842A9
:10030300F0DC23ACF0D0E0FFD0E0FED0E0FDAB8228
:1003130020E7101BEB60BAEC2CFCEF33FFEE33FE4F
:10032300ED33FD020449E803F830E705C0F075F04A
:1003330000EF2FFFEE33FEED33FD40B830E7C28010
:10034300AA74F8CC6480CCC86480C8F58204604F7A
:10035300C3EB9FF5F0EA9E42F0E99D42F0E89C452D
:10036300F0603C501DE5825FFFE582D313CB5BCB8E
:10037300F42B5582FB50280ABA002409B90020083F
:10038300801DE5825BFBE582D313CF5FCFF4C313FC
:100393002F5582FF50090EBE00050DBD00010CC391
:1003A300EB9FF5F0EA9E42F0E99D42F0E89C45F0B0
:1003B3006007CC4820E701B3EC2275F020800E756E
:1003C300F010800575F0087D007E007F003392D524
:1003D30030D5031209DEEC334010EF33FFEE33FE6A
:1003E300ED33FDEC33FCD5F0ED22E5F0247EA2D510
:1003F30013CC92E7CDCEFF22EDD2E7CD33EC33928F
:10040300D524814006E4FFFEFDFC22FCE4CFCECDE3
:10041300CC24E0501174FF80EDC3CC13CCCD13CDAD
:10042300CE13CECF13CF0470F030D5DE0209DEE950
:10043300D2E7C933E833F892D5EDD2E7CD33EC33C5
:10044300FC5002B2D522EC30E7100FBF000C0EBEF9
:1004530000080DBD00040BEB6014A2D5EB13FCEDFB
:1004630092E7FD2274FFFCFDFEFF22E480F8A2D593
:1004730074FF13FC7D80E480EFF920E73624F95004
:10048300037907E4F42402FBE582158270021583E5
:10049300DBF6E024FB501BE96014E4F0E5821582EF
:1004A30070021583E004F0B40A08E4F0D9EE740195
:1004B300F00A22C2D522ED33EC3392D5FA602AB486
:1004C300FF33EDC2E77BFF60067A0479DEE4227A2C
:1004D3000479E720D5047A0479E2224E614E002B99
:1004E300494E46002D494E4600E47A08F0A3DAFC53
:1004F3007B00740722C083C082ECC0E0EDC0E0EE55
:10050300C0E0EFC0E0EA75F010A4CAABF075F04D9F
:10051300A42BFBE435F0FCEA2410FAEB34C5FBEC26
:1005230034D9FCEDC2E7FF75F056A4F42411C5F0ED
:10053300F434C58FF0A42AE5F03BE43CF020E71443
:100543001205EED0E0FFD0E0FED0E0FDD0E0FC12DB
:1005530002A78014F4041205EED0E0FFD0E0FED031
:10056300E0FDD0E0FC12019ED082D083E0FAEDD210
:10057300E7CD33EC332482FBE4C3CF33CFCE33CE8A
:10058300CD33CD33DBF37B0775F00A846004F0A32E
:100593001B0AE5F0F0A38FF0740AA4FFACF08EF011
:1005A300740AA42CFEACF050010C8DF0740AA42C38
:1005B300FDE435F0F0A3DBDE7407223F8000004149
:1005C30020000042C80000447A0000461C40004757
:1005D300C35000497424004B1896804CBEBC205A6B
:1005E3000E1BCA6753C21C749DC5AEFB600654073D
:1005F300601C232312061CEB5438600912060812F0
:10060300061712019EECF8EDF9EEFAEFCB22EB128E
:10061300061780F1543803241C9005BEFE93FC0E8C
:10062300EE93FD0EEE930ECE93FF22E709F608DF5D
:10063300FA8046E709F208DFFA803E88828C83E776
:1006430009F0A3DFFA8032E309F608DFFA8078E3E2
:1006530009F208DFFA807088828C83E309F0A3DF54
:10066300FA806489828A83E0A3F608DFFA805889D6
:10067300828A83E0A3F208DFFA804C80D280FA807A
:10068300C680D4806980F28033801080A680EA809F
:100693009A80A880DA80E280CA803389828A83ECD8
:1006A300FAE493A3C8C582C8CCC583CCF0A3C8C55C
:1006B30082C8CCC583CCDFE9DEE7800D89828A83DB
:1006C300E493A3F608DFF9ECFAA9F0EDFB228982A3
:1006D3008A83ECFAE0A3C8C582C8CCC583CCF0A357
:1006E300C8C582C8CCC583CCDFEADEE880DB89825B
:1006F3008A83E493A3F208DFF980CC88F0EF6001EA
:100703000E4E60C388F0ED2402B4040050B9F582A4
:10071300EB2402B4040050AF232345822390067ECA
:1007230073C2D530F707B2D563F0FF05F030E70C9D
:10073300B2D5F4048463F0FF05F080018430D50260
:10074300F40422BB010689828A83E0225002E72255
:10075300BBFE02E32289828A83E49322BB010CE578
:100763008229F582E5833AF583E0225006E9258262
:10077300F8E622BBFE06E92582F8E222E58229F5A6
:1007830082E5833AF583E49322BB010689828A8357
:10079300F0225002F722BBFE01F322F8BB010DE564
:1007A3008229F582E5833AF583E8F0225006E925AC
:1007B30082C8F622BBFE05E92582C8F222EF8DF03E
:1007C300A4A8F0CF8CF0A428CE8DF0A42EFE22BCDA
:1007D300000BBE0029EF8DF084FFADF022E4CCF8CE
:1007E30075F008EF2FFFEE33FEEC33FCEE9DEC9833
:1007F3004005FCEE9DFE0FD5F0E9E4CEFD22EDF8B9
:10080300F5F0EE8420D21CFEADF075F008EF2FFF5B
:10081300ED33FD4007985006D5F0F222C398FD0F43
:10082300D5F0EA22C2D5EC30E709B2D5E4C39DFD89
:10083300E49CFCEE30E715B2D5E4C39FFFE49EFED3
:100843001207D2C3E49DFDE49CFC80031207D2305F
:10085300D507C3E49FFFE49EFE22C5F0F8A3E0287A
:10086300F0C5F0F8E582158270021583E038F022B6
:10087300A3F8E0C5F025F0F0E58215827002158338
:10088300E0C838F0E822BB0110E58229F582E58350
:100893003AF583E0F5F0A3E0225009E92582F886D2
:1008A300F008E622BBFE0AE92582F8E2F5F008E249
:1008B30022E5832AF583E993F5F0A3E99322E88FF0
:1008C300F0A4CC8BF0A42CFCE98EF0A42CFC8AF0D1
:1008D300EDA42CFCEA8EF0A4CDA8F08BF0A42DCCD3
:1008E3003825F0FDE98FF0A42CCD35F0FCEB8EF02C
:1008F300A4FEA9F0EB8FF0A4CFC5F02ECD39FEE412
:100903003CFCEAA42DCE35F0FDE43CFC2275F00856
:10091300758200EF2FFFEE33FECD33CDCC33CCC544
:100923008233C5829BED9AEC99E58298400CF5825F
:10093300EE9BFEED9AFDEC99FC0FD5F0D6E4CEFBD1
:10094300E4CDFAE4CCF9A88222B800C1B90059BABF
:10095300002DEC8BF084CFCECDFCE5F0CBF97818ED
:10096300EF2FFFEE33FEED33FDEC33FCEB33FB10E7
:10097300D703994004EB99FB0FD8E5E4F9FA227801
:1009830018EF2FFFEE33FEED33FDEC33FCC933C913
:1009930010D7059BE99A4007EC9BFCE99AF90FD81D
:1009A300E0E4C9FAE4CCFB2275F010EF2FFFEE333D
:1009B300FEED33FDCC33CCC833C810D7079BEC9A7C
:1009C300E899400AED9BFDEC9AFCE899F80FD5F005
:1009D300DAE4CDFBE4CCFAE4C8F922C3E49FFFE4F4
:1009E3009EFEE49DFDE49CFC22EB9FF5F0EA9E4213
:1009F300F0E99D42F0EC6480C864809845F022EBF6
:100A03009FF5F0EA9E42F0E99D42F0E89C45F02212
:100A1300E8600FECC313FCED13FDEE13FEEF13FFC1
:100A2300D8F122BB010789828A83020B3B5005E977
:100A3300F8020B2FBBFE05E9F8020B4789828A8374
:100A4300020B537401FF3395E0FEFDFCA3A3A3E067
:100A5300CF2FF0E582158270021583E0CE3EF0E5DC
:100A630082158270021583E0CD3DF0E58215827018
:100A7300021583E0CC3CF022ECF0A3EDF0A3EEF002
:100A8300A3EFF022A8828583F0D083D082120A9E3E
:100A9300120A9E120A9E120A9EE473E493A3C5836C
:100AA300C5F0C583C8C582C8F0A3C583C5F0C58397
:100AB300C8C582C822F5F0C582A4C582C5F0C58326
:100AC300A42583F58322F8E0FBA3A3E0F925F0F046
:100AD300E582158270021583E0FA38F022EBF0A369
:100AE300EAF0A3E9F022BB010789828A83020B6C37
:100AF3005005E9F8020B63BBFE05E9F8020B7589A3
:100B0300828A83020B7ED083D082F8E493701274BE
:100B13000193700DA3A393F8740193F5828883E482
:100B2300737402936860EFA3A3A380DFE6FC08E677
:100B3300FD08E6FE08E6FF22E0FCA3E0FDA3E0FEDD
:100B4300A3E0FF22E2FC08E2FD08E2FE08E2FF2246
:100B5300E493FC740193FD740293FE740393FF22E8
:100B6300E6FB08E6FA08E6F922E0FBA3E0FAA3E0D5
:100B7300F922E2FB08E2FA08E2F922E493FB7401AA
:100B830093FA740293F922E50824D1F582E434013F
:100B9300F583E00508229001CE3007039001D1E4EC
:100BA30075F001120AC90207462000E97F2ED20020
:100BB3008018EF540F2490D43440D4FF30040BEF4B
:100BC30024BFB41A0050032461FFE509600215092C
:100BD300050CE50C7002050B30070E9001CEE47591
:100BE300F001120AC9EF02078C0224B27403D20780
:100BF3008003E4C207F5089001CE120AE0E4F50988
:100C0300F50BF50CE50960077F20120BCD80F57518
:100C13000AFFC201C200C202C203C205C206C20861
:100C2300120B99FF700D3007057F00120BDEAF0C1E
:100C3300AE0B22B4255FC2D5C204120B99FF24D098
:100C4300B40A00501A75F00A780930D50508B6FFC2
:100C53000106C6A426F620D5047002D20380D92447
:100C6300CFB41A00EF5004C2E5D204020ED0D20171
:100C730080C6D20080C0D20280BCD2D580BAD20551
:100C830080B47F20120BCD2002077401B509004008
:100C9300F1120B8AFF120BCD020C07D208D2068089
:100CA30095120B8AFB120B8AFA120B8AF94A4B70C4
:100CB3000679CE7A0F7BFF20022EE509602A7E009B
:100CC3008E8275830012075F60060EEE650A70F070
:100CD300C2D5EBC0E0EAC0E0E9C0E0EE120F31D0CC
:100CE300E0F9D0E0FAD0E0FB120746FF60AAEBC0C0
:100CF300E0EAC0E0E9C0E0120BCDD0E02401F9D076
:100D0300E03400FAD0E0FBE50A0460DCD50AD980C0
:100D130087D20280A2120F1360F7E50A7001041252
:100D2300047CA90A600DE50A600914F50A120FBBD9
:100D3300EF60F3EA30E702F404C3995079EAF4254B
:100D43000A0430E701E404F50A800D120F1360C1B1
:100D5300EA050A250A12047CEA9001FDF030E70156
:100D6300E4250A04D50A0420050114120F31E4C056
:100D7300E0120FBB9001FDE0601320E70714F012AF
:100D83000BB5802204F0D0E014C0E07F00120BB555
:100D9300E50A6007120BAC150A800B300503120B32
:100DA300ACD0E0020C07D0E00480C4120F13609EA5
:100DB300E50A0412047C9001FDEAF0E50A2005022D
:100DC3006001042404120F3174FF04C0E0120FBB4E
:100DD300120BB5E50A2005026003120BACD0E0B597
:100DE3000AE87F45120BBF9001FDE07F2B30E7043B
:100DF3007F2DF404C0E0120BCDD0E075F00A84C05F
:100E0300F0120BB6D0E0120BB6020C077910800279
:100E13007908C206C2088008D2D5790A8004790A03
:100E2300C2D5E50A047002F50AE4FAFDFEFF120BCF
:100E33008AFC7B08200113120B8AFD7B1030000A09
:100E4300120B8AFE120B8AFF7B20EC3382D592D5DC
:100E53005013C3E43000069FFFE49EFEE420010329
:100E63009DFDE49CFCE4CBF8C201EC700CCFCECD2D
:100E7300CCE824F8F870F38017C3EF33FFEE33FEAA
:100E8300ED33FDEC33FCEB33FB994002FB0FD8E968
:100E9300EB300105F8D0E0C448B201C0E00AEC4DE4
:100EA3004E4F78207B0070C2EAB50A0040BCC0E018
:100EB300120F33D0F0D0E0200104C4C0E0C4B2016B
:100EC300C0F0120BB6D0F0D5F0EB020C07120B09F1
:100ED3000CA4530E0F580C754C0C71420E134F0E8D
:100EE3001B440E1B490C8A430E21550D4E460DAE75
:100EF300450D18470FEE500C792D0C7D2E0CA02BB1
:100F03000C81230C9E200FD72A0C394800000C9823
:100F1300E50AB4FF03750A06120B8AFC120B8AFD5D
:100F2300120B8AFE120B8AFF9001F60204B9790AAA
:100F3300A2D5200314300509B910020404B908012D
:100F430004A2D52006025001042002689202B509CA
:100F5300005034C0E07F203003197F30A2027206B4
:100F63007205500F120F8AC202C206C205C2087F61
:100F730030800F300503E9C0E0120BCD300503D0FC
:100F8300E0F9D0E0B509CC3005177F30B9100C1269
:100F93000BCD7F583004077F788003B90803120B09
:100FA300CD3002057F2D020BCD7F202008F87F2B4B
:100FB3002006F322920280CF7F00B40700500B2457
:100FC300F6F582E43401F583E0FF22286E756C6C3C
:100FD3002900D201120B8A3001F8C201780930D5F9
:100FE3000108F6020C392D50434958120B8A240389
:100FF300B405004001E4900FE993120BBE743A125A
:101003000BBED203750904020E0F43BA80E59D603F
:101013003178FAE6FBAF9FC3EF9BFFE49400FEE455
:101023009400FDE49400FC7BE07A287901780012B7
:1010330008C1E42FFFEE3451FEED3425FDEC3402FC
:10104300802E78FBE6FBAF9FC3EF9BFFE49400FE8B
:10105300E49400FDE49400FCE47B807ABBF9F8128D
:1010630008C1E42FFFEE3436FEED346EFDEC34019F
:10107300FC9001CE120A7B9001CEE0FCA3E0FDA31D
:10108300E0FEA3E0FFC00790FE01E0FBE4FAF9F8FD
:10109300D00712094C9001CE120A7B7FC07EF67DE9
:1010A300577C009001CEE0F8A3E0F9A3E0FAA3E0B7
:1010B300FBC3120A0250097F007E607D547C00222C
:1010C3007FC07E267D827C009001CEE0F8A3E0F90C
:1010D300A3E0FAA3E0FBC3120A0250097F807E8DCE
:1010E3007D5B7C00227F807EED7DAF7C009001CE16
:1010F300E0F8A3E0F9A3E0FAA3E0FBC3120A02506D
:10110300097F007EC07DA87C00227F807E2D7DE844
:101113007C009001CEE0F8A3E0F9A3E0FAA3E0FBA2
:10112300C3120A0250097F007E1B7DB77C00227F19
:10113300807E367D257C019001CEE0F8A3E0F9A303
:10114300E0FAA3E0FBC3120A0250097F007E407D50
:10115300197C01227F807E567D417C019001CEE087
:10116300F8A3E0F9A3E0FAA3E0FBC3120A025009D3
:101173007F007E2D7D317C01227F007EDB7D5F7CC5
:10118300019001CEE0F8A3E0F9A3E0FAA3E0FBC3EA
:10119300120A0250097F007E807D517C01227F600C
:1011A3007E197D857C019001CEE0F8A3E0F9A3E0F0
:1011B300FAA3E0FBC3120A0250097F007E367D6E5C
:1011C3007C01227F207EE07DB27C019001CEE0F89D
:1011D300A3E0F9A3E0FAA3E0FBC3120A0250097FDC
:1011E300C07EFC7D9B7C01227FE07EA67DE07C01AE
:1011F3009001CEE0F8A3E0F9A3E0FAA3E0FBC31269
:101203000A0250097F807EC37DC97C01227F607EF4
:101213002B7DFF7C019001CEE0F8A3E0F9A3E0FA77
:10122300A3E0FBC3120A0250097F007E407DFA7CD3
:1012330001227F607E477D247C029001CEE0F8A3EB
:10124300E0F9A3E0FAA3E0FBC3120A0250097FC04E
:101253007E0E7D167C02227F007E6D7D4A7C02908D
:1012630001CEE0F8A3E0F9A3E0FAA3E0FBC3120A7E
:101273000250097F007E807D327C02227F807EDEE9
:101283007D807C029001CEE0F8A3E0F9A3E0FAA30D
:10129300E0FBC3120A0250097F007E5A7D627C0282
:1012A300227F807EE77DBD7C029001CEE0F8A3E043
:1012B300F9A3E0FAA3E0FBC3120A025008E4FFFE1D
:1012C3007DA37C02227F007E6C7DDC7C0222ED60AC
:1012D30003021374EF54F0F9FB7A007013EF540F09
:1012E300FEF87401088002C333D8FCF4529352947D
:1012F300EB64104A7013EF540FFEF8740108800278
:10130300C333D8FCF452915292E964207013EF5422
:101313000FFEF87401088002C333D8FCF4529552CF
:1013230096E9FB7A0064307013EF540FFEF87401F2
:10133300088002C333D8FCF452B152B2EB64404A82
:101343007013EF540FFEF87401088002C333D8FC06
:10135300F452B352B4E964506003021581EF540FA1
:10136300FEF87401088002C333D8FCF452C952CA90
:1013730022ED64016003021424EF54F0F9FB7A00B8
:101383007015EF540FFEF87401088002C333D8FCC4
:10139300FEF45293EE4294EB64104A7015EF540F2F
:1013A300FEF87401088002C333D8FCFEF45291EEB8
:1013B3004292E964207015EF540FFEF8740108801F
:1013C30002C333D8FCFEF45295EE4296E9FB7A0051
:1013D30064307015EF540FFEF87401088002C333B4
:1013E300D8FCFEF452B1EE42B2EB64404A7015EF02
:1013F300540FFEF87401088002C333D8FCFEF45284
:10140300B3EE42B4E964506003021581EF540FFE5A
:10141300F87401088002C333D8FCFEF452C90215E4
:101423007EED640260030214D5EF54F0F9FB7A00F9
:101433007015EF540FFEF87401088002C333D8FC13
:10144300FE4293EEF45294EB64104A7015EF540F7E
:10145300FEF87401088002C333D8FCFE4291EEF417
:101463005292E964207015EF540FFEF8740108805E
:1014730002C333D8FCFE4295EEF45296E9FB7A00A0
:1014830064307015EF540FFEF87401088002C33303
:10149300D8FCFE42B1EEF452B2EB64404A7015EF51
:1014A300540FFEF87401088002C333D8FCFE42B324
:1014B300EEF452B4E964506003021581EF540FFE59
:1014C300F87401088002C333D8FCFE42C9EEF4521B
:1014D300CA22ED64036003021581EF54F0FD7C0022
:1014E3007014EF540FFEF87401088002C333D8FC64
:1014F300FE4293EE4294ED64104C7014EF540FFED1
:10150300F87401088002C333D8FCFE4291EE429284
:10151300EF54F064207014EF540FFEF87401088048
:1015230002C333D8FCFE4295EE4296EF54F0FD7CA5
:101533000064307014EF540FFEF87401088002C386
:1015430033D8FCFE42B1EE42B2ED64404C7014EF6E
:10155300540FFEF87401088002C333D8FCFE42B373
:10156300EE42B4EF54F064507014EF540FFEF8746D
:1015730001088002C333D8FCFE42C9EE42CA22905E
:1015830001CEEFF0E49001D7F0A3F043BA809001CD
:10159300CEE0FF1219F79001CFE0F8A3E0F9A3E042
:1015A300FAA3E0FB90024BE0FCA3E0FDA3E0FEA363
:1015B300E0FF12094C7810120A139001D7EEF0A342
:1015C300EFF09001CFE0F8A3E0F9A3E0FAA3E0FB8A
:1015D30090024BE0FCA3E0FDA3E0FEA3E0FF1209B1
:1015E3004CC006C0079001D8E02401FF9001D7E06A
:1015F3003400AB07FAE4F9F8D007D00612094CEF30
:1016030024FFFFEE34FF9001D5F0A3EFF09001D358
:10161300E0FCA3E0FDE41203C27B007A40791C786E
:10162300461202A7C004C005C006C0079001D5E05A
:10163300FCA3E0FDE41203C2D003D002D001D0002A
:1016430012019E1203FBAD07AC069001CEE0FFD35F
:1016530074409F7480F898400302173490FEB5C01D
:1016630083C082E0FF9001CEE0FEC4540F24FCF956
:1016730025E0FBF87401088002C333D8FC4FD08205
:10168300D083F090FEB6C083C082E0FFEE5403FE29
:10169300A803088002C333D8FC4FD082D083F0E97B
:1016A300C31324ECFFE434FE8F82F583C083C0822E
:1016B300E0FF9001CEE0F9C4540FFE540125E0256C
:1016C300E0FBF87401088002C333D8FC4FD082D00A
:1016D30083F0EE24E4FFE434FE8F82F583E044607C
:1016E300F0E04408F09001D5E0FFA3E090FEF2CFD4
:1016F300F0A3EFF09001D7E0FFA3E090FEF0CFF06E
:10170300A3EFF0E9C4540F24FCFFE434FFFEEF25FC
:10171300E0FFEE33FEEF24F5FFEE34FE8F82F58318
:10172300ECF0A3EDF090FEFD7480F090FEE0021863
:101733002090FEB1C083C082E0FB9001CEE0FA545A
:1017430001F97E007401A801088005C333CE33CEAE
:10175300D8F9FFEAC4540F25E0FAEFA80208800580
:10176300C333CE33CED8F94BD082D083F090FEB2C0
:10177300C083C082E0FF9001CEE05407C313FEA8EC
:1017830002088002C333D8FC4FD082D083F090018B
:10179300CEE0FFC413540724CCFBE434FE8B82F564
:1017A30083C083C082E0FEEFC4540FFF540125E0E1
:1017B30025E0FBE925E02BFBF87401088002C33325
:1017C300D8FC4ED082D083F0EF24C8FFE434FE8FE0
:1017D30082F583E04460F0E04408F09001D5E0FF37
:1017E300A3E090FED2CFF0A3EFF09001D7E0FFA3E8
:1017F300E090FED0CFF0A3EFF09001CEE0C4540F01
:1018030075F002A424D5FFE5F034FE8F82F583EC56
:10181300F0A3EDF090FEDD7480F090FEC07401F053
:10182300229001CEEFF0A3EDF0A3EBF0A3E0F8A339
:10183300E0F9A3E0FAA3E0FB90024BE0FCA3E0FD98
:10184300A3E0FEA3E0FF12094CE47B04FAF9F812CB
:10185300094CC3E49FFFE49EAD07FC9001CEE01466
:1018630070030218FD147003021940147003021967
:1018730099240360030219F69001D5E0FB7A006412
:101883000170144398508D8BECF58D438E40D28EAE
:10189300E49001CAF08011EB64024A700B43985044
:1018A3008DD7ECF5D6438E1553A23F9001CFE0F9C7
:1018B300FF7E007008A3E0640170028035EF6402CC
:1018C3004E700D9001D0E06403700543A240802266
:1018D300E96404700D9001D0E06405700543A280B3
:1018E3008010E96406700B9001D0E0640770034335
:1018F300A2C0E49001CAF0D2AC229001D5E0640208
:10190300700B439A108DD7ECF5D6438E1453BAFE61
:101913009001CFE0FF7E0064087008A3E0640970C3
:10192300028011EF640A4E700B9001D0E0640B70DB
:101933000343BA0143AF01E49001CBF0229001D5F8
:10194300E0FB7A006402700D43AC108DD7ECF5D642
:10195300438E148011EB64034A700B43AC508DD556
:10196300ECF5D443D10A53BAFD9001CFE0FF7E00DA
:10197300640C7008A3E0640D70028011EF640E4ED6
:10198300700B9001D0E0640F700343BA0243AF08B9
:10199300E49001CCF0229001D5E0FB7A0064027060
:1019A3000D4384108DD7ECF5D6438E148011EB6470
:1019B300044A700B4384508DD3ECF5D243D1A0532A
:1019C300BAFB9001CFE0FF7E0064107008A3E064CF
:1019D3001170028016EF64124E70109001D0E06413
:1019E300137008F5CA75C90443BA0443AF10E490F1
:1019F30001CDF022EF120B091A7D001A84011A8B14
:101A0300021A92031A99041AA0051AA7101AAE1102
:101A13001AB5121ABC131AC3141ACA151AD1201AEA
:101A2300D8211ADF221AE6231AED241AF4251AFB09
:101A3300301B02311B08321B0E331B14341B1A35A7
:101A43001B20361B26371B2C401B32411B38421BE5
:101A53003E431B44501B4A511B50521B56531B5CA5
:101A6300601B62611B68621B6E631B74701B2071B9
:101A73001B7A721B807300001B877D017F10021B82
:101A8300847D017F11021B847D017F20021B847DE5
:101A9300017F21021B847D017F60021B847D017F06
:101AA30061021B847D017F12021B847D017F13026F
:101AB3001B847D017F22021B847D017F23021B8403
:101AC3007D017F62021B847D017F63021B847D0194
:101AD3007F14021B847D017F15021B847D017F24FB
:101AE300021B847D017F25021B847D017F64021B11
:101AF300847D017F65021B847D017F16021B847D2B
:101B0300017F17807C7D017F2680767D017F278082
:101B1300707D017F66806A7D017F6780647D017FC0
:101B230034805E7D017F3380587D017F2080527D2C
:101B3300017F17804C7D01E4FF80467D017F748027
:101B4300407D017F21803A7D017F5480347D017F78
:101B530001802E7D017F7580287D017F2280227D7B
:101B6300017F33801C7D017F0280167D017F76809B
:101B7300107D017F23800A7D017F0380047D017F27
:101B8300771212D12290021FE0FEA3E0FFC390025E
:101B930004E09FFF900203E09EFE900207F0A3EF94
:101BA300F090021AE02FF0900219E03EF01223CEDB
:101BB300AC06AD07EC1203C2900215E0F8A3E0F9FE
:101BC300A3E0FAA3E0FB12019EC004C005C006C057
:101BD30007900219E0FCA3E0FDEC1203C2D003D08E
:101BE30002D001D00012019EC004C005C006C00788
:101BF300900207E0FCA3E0FDEC1203C290021BE09D
:101C0300F8A3E0F9A3E0FAA3E0FB12019ED003D00E
:101C130002D001D0001200ADC004C005C006C00749
:101C2300900205E0FEA3E0FFC3900208E09FFD9051
:101C33000207E09EFC1203C290020FE0F8A3E0F952
:101C4300A3E0FAA3E0FB12019EC004C005C006C0D6
:101C530007900221E0FCA3E0FDEC1203C2A804A953
:101C630005AA06AB07D007D006D005D0041202A7F9
:101C7300D003D002D001D0001200AD1203FB9002BA
:101C83000DEEF0A3EFF0900220E02FFF90021FE093
:101C93003E900209F0A3EFF0900207E0FFA3E0906B
:101CA3000205CFF0A3EFF0229001CEEBF0A3EAF010
:101CB300A3E9F0A3120A7B78D97C017D017BFF7A2B
:101CC3002479D57E007F021206FE78DB7C017D013C
:101CD3007BFF7A2479D77E007F021206FEE490010F
:101CE300D5F0A3F09001D5E0FEA3E0FFEE3395E03D
:101CF300FDFC9001D1E0F8A3E0F9A3E0FAA3E0FB37
:101D0300D3120A0240599001CEE0FBA3E0FAA3E00C
:101D1300F99001D5E0FEA3E0FFF5828E8312075F01
:101D2300FD9001D7E4F0A3EDF08F828E83A3120719
:101D33005FFF9001D5E0FCA3E0FDF5828C83EF12F9
:101D4300079E9001D7A3E08D828C83A312079E90F8
:101D530001D6E02402F09001D5E03400F080857BC9
:101D6300017A0179D99001E1E4F0A37402F0E4FF70
:101D73001224389001CEE0FBA3E0FAA3E0F9A3A379
:101D8300A3E0FFA3E09001E1CFF0A3EFF0E4FF12A3
:101D930024387B017A0179DB9001E1E4F0A374023A
:101DA300F0E4FF0224381200561220E49001CF120F
:101DB3000A8700002710E49001D3F0A3F07F3412C8
:101DC3001582E4FF12234E12005E122084C2C5E482
:101DD300FF30B50E1222C4C3E49FFFE49E90021F9E
:101DE30080071222C490021FEEF0A3EFF0E4FF126B
:101DF300227B121B8890020DE0FCA3E0FDEC120392
:101E0300C27B5C7A8F7912784012019E1203FB9099
:101E1300020CE02FF090020BE03EF0C3A3E094C469
:101E230090020BE06480948940077409F0A374C4A2
:101E3300F0D390020CE0940090020BE06480948055
:101E43005004E4F0A3F090020BE0FCA3E0FD7F3428
:101E5300121EA790021FE0FFA3E0900201CFF0A3A0
:101E6300EFF07BFF7A2479C390020BE0FFA3E090AD
:101E730001D1CFF0A3EFF0900209E0FFA3E09001BE
:101E8300D3CFF0A3EFF0120BF57B017A0279017F38
:101E9300027E007D007C00121CAB7F647E0012007A
:101EA30026021DD09001CFECF0A3EDF09001CEEF10
:101EB300F0D374409F7480F8985063A3E0FCA3E0D0
:101EC300FDE41203C27B007A40791C78461202A714
:101ED300C004C005C006C00790FEF2E0FCA3E0FD0D
:101EE300E41203C2D003D002D001D00012019E122B
:101EF30003FB9001D1EEF0A3EFF09001D1E0FCA33E
:101F0300E0FD9001CEE0C4540F24FCFFE434FFFE57
:101F1300EF25E0FFEE33FEEF24F5FFEE805990014D
:101F2300CFE0FCA3E0FDE41203C27B007A40791CFE
:101F330078461202A7C004C005C006C00790FED2AF
:101F4300E0FCA3E0FDE41203C2D003D002D001D031
:101F53000012019E1203FB9001D1EEF0A3EFF0906B
:101F630001D1E0FCA3E0FD9001CEE0C4540F75F075
:101F730002A424D5FFE5F034FE8F82F583ECF0A3B1
:101F8300EDF022787FE4F6D8FD758121021FCD02A2
:101F93001DA9E493A3F8E493A34003F68001F20898
:101FA300DFF48029E493A3F85407240CC8C333C493
:101FB300540F4420C8834004F456800146F6DFE4FE
:101FC300800B01020408102040809024A0E47E01CD
:101FD3009360BCA3FF543F30E509541FFEE493A371
:101FE30060010ECF54C025E060A840B8E493A3FA83
:101FF300E493A3F8E493A3C8C582C8CAC583CAF00F
:10200300A3C8C582C8CAC583CADFE9DEE780BEE4C8
:102013007B107A27F9F890024BE0FCA3E0FDA3E0E4
:10202300FEA3E0FF12094C90024FEEF0A3EFF07B0A
:10203300407A42790F780090024BE0FCA3E0FDA3C5
:10204300E0FEA3E0FF12094CEF24FEFFEE34FF9005
:102053000251F0A3EFF07F007E1B7DB77C0090025E
:102063004BE0F8A3E0F9A3E0FAA3E0FBD3120A02E2
:10207300500E900252E004F07006900251E004F01A
:1020830022900221E4F0A304F0E490021FF0A3F0F5
:1020930090020304F0A374F4F090021B120A873D2C
:1020A3004CCCCD900215120A870000000090020F5D
:1020B300120A87000000009002137401F0A3742C2D
:1020C300F0E4900205F0A3F0900219F0A3F090025F
:1020D30009F0A3F0900207F0A3F090020DF0A3F033
:1020E3002243FF1012100D90024B120A7B12201292
:1020F300E4F594F593F592F591F596F595F5B2F52A
:10210300B1F5B4F5B3F5CAF5C9F5CCF5CBF5E2F500
:10211300E1F5DEF58EF598F59AF5ACF584F5A2F5C3
:10212300BAF5AFF5899001D1120A870001C2009078
:1021330001D57402F07B01E4FDFF021824C0E0C066
:10214300F0C083C082C0D075D000C000C001C002FF
:10215300C003C004C005C006C007E58430E10853CE
:1021630084FD9001CDE4F0E58430E0065384FE1253
:102173000046D007D006D005D004D003D002D0014A
:10218300D000D0D0D082D083D0F0D0E032AF06E000
:10219300FBA3E475F001120873A9F0FA120746FDD8
:1021A300EF14601514601D1460252403702D900135
:1021B300CAE070FA04F08D99229001CBE070FA0422
:1021C300F08D9B229001CCE070FA04F08DAD22904B
:1021D30001CDE070FA04F0AF058F8522C0E0C08323
:1021E300C082C0D075D000C007E59830E10853988D
:1021F300FD9001CAE4F0E59830E0255398FEAF99CD
:10220300EF647F7016900253E0FF04F0D3EF941451
:1022130074809480400A75C7608005900253E4F08F
:10222300D007D0D0D082D083D0E032E4900200F047
:10223300D2A0C2A1C2A0D2A1D2A0C2A1F09002009A
:10224300E0C39480748094805027C2A0E4FD7F0D86
:10225300122407900200E025E02401F582E4340013
:10226300F583EEF0A3EFF0D2A0900200E004F0803B
:10227300CC9000007401F022EF14601714601E1458
:10228300602714603024047037C28CE4F58CF58A1F
:10229300D28C22C28EE4F58DF58BD28E22538EEF33
:1022A300E4F5D6F5D7438E102253D1F7E4F5D4F5F0
:1022B300D543D1082253D17FE4F5D2F5D343D1805E
:1022C30022EF14601714601E14602514602C24047C
:1022D3007030AF8CEFFCAF8AEFFD8026AF8DEFFC43
:1022E300AF8BEFFD801CAFD6EFFCAFD7EFFD8012B5
:1022F300AFD4EFFCAFD5EFFD8008AFD2EFFCAFD387
:10230300EFFDAF05AE0422C2D5E830E70FB2D5E446
:10231300C39BFBE49AFAE499F9E498F8EC30E717E5
:10232300B2D512234012094CE4C39BFBE49AFAE4AE
:1023330099F9E498F8800312094C30D50DE4C39F52
:10234300FFE49EFEE49DFDE49CFC22EF1460181460
:10235300602014602614602C24047030E4F58AF5A0
:102363008C438904D28C22E4F58BF58D438940D2CA
:102373008E22E4F5D7F5D6438E1822E4F5D5F5D4AD
:1023830043D10C22E4F5D3F5D243D1C022C0E0C03F
:10239300F0C083C082C0D075D000C000C001C002AD
:1023A300C003C004C005C006C00753EFFB12222EB2
:1023B300D007D006D005D004D003D002D001D0007E
:1023C300D0D0D082D083D0F0D0E03290021FE0FE94
:1023D300A3E0FFC3900204E09FFD900203E09EFC94
:1023E3001203C21203FB120066D3900214E09FEEA5
:1023F3006480F8900213E06480987E0040037F00BD
:10240300227F0122A90553BCF0EF42BC43BC40E547
:10241300BC30E5FB53BCDFAFBDEFFEADBEEDFFE46B
:10242300F5BDF5BEAD01EFA805088005CEC313CEFB
:1024330013D8F9FF229001DEEBF0A3EAF0A3E9F051
:10244300AE079001E174FFF5F012087345F06008E0
:102453009001DE12219080EA22C0E0C083C082E5B1
:102463009A30E108539AFD9001CBE4F0E59A30E00D
:1024730003539AFED082D083D0E032C0E0C083C041
:1024830082E5AC30E10853ACFD9001CCE4F0E5AC5F
:1024930030E00353ACFED082D083D0E03244024B11
:1024A3000000000042024F00004202510000009071
:1024B30001FEEFF0FDE4FF1221A39001FEE0FF22F5
:1024C300647574793D25642C6F75747075743D253E
:0624D300640003FCFC03A1
:00000001FF
