:1000000002182B02007A53EFFE323202001253EF35
:10001000FD323202000A53EFFB323202001A53EF74
:02002000FE32AE
:10002300021AF5900232E0FCA3E0FDED1D70011C05
:1000330014AA044C70F5EF1F70011E144E70E422D5
:0E004300021CE2900205E585F02253EFFD322B
:06005300020006C2AF220C
:06005B0002000ED2AF22EC
:1000630002001ED3EF9400EE64809480400122C30B
:0E007300E49FFFE49EFE22C2CA3203FCFC039F
:0300830002001662
:03008B00021D044F
:03009300021A56F8
:10009B0002004D02045FE86480F8E933E833601135
:1000AB000460F0ED33EC337009E8FCE9FDEAFEEB9C
:1000BB00FF220460DED3EB9FEA9EE99DE8C2E78C4A
:1000CB00F0C2F795F0400CE8CCF8E9CDF9EACEFA9E
:1000DB00EBCFFB12042A85D0F05804700320D5B364
:1000EB00E80470075002B2D502046992D5EC0460A3
:1000FB00F7E4CCC0E0C398F8603B94186008400D5F
:10010B00D0E0FB020441E4FBFAC9FC8028E830E4B0
:10011B0006E4C9FBE4CAFCE830E305E4C9CACBFC3E
:10012B00E854076010F8C3E913F9EA13FAEB13FB71
:10013B00EC13FCD8F130F52FC3E49CFCEF9BFFEEE6
:10014B009AFEED99FDD0E0FBEF4E4D4C701222DB89
:10015B0003020466EC2CFCEF33FFEE33FEED33FDB4
:10016B00ED30E7EB020441EF2BFFEE3AFEED39FDEC
:10017B00D0E0FB50130BBB0003020469ED13FDEE43
:10018B0013FEEF13FFEC13FC020441EC4D6011E87E
:10019B00497017ED33EC3304600DE4FCFFFEFD22D8
:1001AB00E933E8330470F802045F12042A58046040
:1001BB0009E4CC2481500628500902046928400325
:1001CB00020466C0E0EB4A7044B98006D0E0FB0243
:1001DB000455EF4E701CBD8008EBFFEAFEE9FD8075
:1001EB00EBE98DF0A4FEE5F002027FE9CDF9EAFE22
:1001FB00EBFFEF89F0A4FCE5F0CE89F0A42EFFE431
:10020B0035F0CD89F0A42DFEE435F08067EF4E700C
:10021B0005BD80D780C3EF8BF0A4ACF0EE8BF0A4C0
:10022B002CFCE435F0F8EF8AF0A42CE5F038FCE474
:10023B0033CB8DF0A42CFCE5F03BF8EE8AF0A42C2C
:10024B00FCE5F038F8E433CF89F0A42CFCE5F0386A
:10025B00CF3400CE89F0A42FFFE5F03EFEE433C986
:10026B008DF0A42EFEE5F039CD8AF0A42FFFE5F03A
:10027B003EFEE43DFD33D0E0FB50070BBB000F020D
:10028B000469EC2CFCEF33FFEE33FEED33FD02047F
:10029B0041020469EC5D046005E859047003020433
:1002AB005F12042A580460F6EC4860F2EC7004FD0F
:1002BB00FEFF22C860DB2481C85009C3986002503E
:1002CB00060204669850CAF582E9294B4A7005ABC1
:1002DB008202045575F0007C1A7880C3EF9BEE9A6E
:1002EB00ED99400DC3EF9BFFEE9AFEED99FDE842B1
:1002FB00F0DC23ACF0D0E0FFD0E0FED0E0FDAB8231
:10030B0020E7101BEB60BAEC2CFCEF33FFEE33FE57
:10031B00ED33FD020441E803F830E705C0F075F05A
:10032B0000EF2FFFEE33FEED33FD40B830E7C28018
:10033B00AA74F8CC6480CCC86480C8F58204604F82
:10034B00C3EB9FF5F0EA9E42F0E99D42F0E89C4535
:10035B00F0603C501DE5825FFFE582D313CB5BCB96
:10036B00F42B5582FB50280ABA002409B900200847
:10037B00801DE5825BFBE582D313CF5FCFF4C31304
:10038B002F5582FF50090EBE00050DBD00010CC399
:10039B00EB9FF5F0EA9E42F0E99D42F0E89C45F0B8
:1003AB006007CC4820E701B3EC2275F020800E7576
:1003BB00F010800575F0087D007E007F003392D52C
:1003CB0030D503120824EC334010EF33FFEE33FE2D
:1003DB00ED33FDEC33FCD5F0ED22E5F0247EA2D518
:1003EB0013CC92E7CDCEFF22EDD2E7CD33EC339297
:1003FB00D524814006E4FFFEFDFC22FCE4CFCECDEC
:10040B00CC24E0501174FF80EDC3CC13CCCD13CDB5
:10041B00CE13CECF13CF0470F030D5DE020824E913
:10042B00D2E7C933E833F892D5EDD2E7CD33EC33CD
:10043B00FC5002B2D522EC30E7100FBF000C0EBE01
:10044B0000080DBD00040BEB6014A2D5EB13FCED03
:10045B0092E7FD2274FFFCFDFEFF22E480F8A2D59B
:10046B0074FF13FC7D80E480EFE709F608DFFA8068
:10047B0046E709F208DFFA803E88828C83E709F0B1
:10048B00A3DFFA8032E309F608DFFA8078E309F29A
:10049B0008DFFA807088828C83E309F0A3DFFA808F
:1004AB006489828A83E0A3F608DFFA805889828AFE
:1004BB0083E0A3F208DFFA804C80D280FA80C680FA
:1004CB00D4806980F28033801080A680EA809A8085
:1004DB00A880DA80E280CA803389828A83ECFAE4CE
:1004EB0093A3C8C582C8CCC583CCF0A3C8C582C8AA
:1004FB00CCC583CCDFE9DEE7800D89828A83E49368
:10050B00A3F608DFF9ECFAA9F0EDFB2289828A83C6
:10051B00ECFAE0A3C8C582C8CCC583CCF0A3C8C590
:10052B0082C8CCC583CCDFEADEE880DB89828A8394
:10053B00E493A3F208DFF980CC88F0EF60010E4E54
:10054B0060C388F0ED2402B4040050B9F582EB24AB
:10055B0002B4040050AF23234582239004C473C21A
:10056B00D530F707B2D563F0FF05F030E70CB2D505
:10057B00F4048463F0FF05F080018430D502F404A9
:10058B0022BB010689828A83E0225002E722BBFE4E
:10059B0002E32289828A83E49322BB010CE5822940
:1005AB00F582E5833AF583E0225006E92582F8E6E9
:1005BB0022BBFE06E92582F8E222E58229F582E5D7
:1005CB00833AF583E49322BB010689828A83F02266
:1005DB005002F722BBFE01F322F8BB010DE5822985
:1005EB00F582E5833AF583E8F0225006E92582C8C7
:1005FB00F622BBFE05E92582C8F222EF8DF0A4A8F6
:10060B00F0CF8CF0A428CE8DF0A42EFE22BC000BD4
:10061B00BE0029EF8DF084FFADF022E4CCF875F02D
:10062B0008EF2FFFEE33FEEC33FCEE9DEC9840050C
:10063B00FCEE9DFE0FD5F0E9E4CEFD22EDF8F5F0D2
:10064B00EE8420D21CFEADF075F008EF2FFFED33DA
:10065B00FD4007985006D5F0F222C398FD0FD5F058
:10066B00EA22C2D5EC30E709B2D5E4C39DFDE49C88
:10067B00FCEE30E715B2D5E4C39FFFE49EFE1206F5
:10068B0018C3E49DFDE49CFC800312061830D507CB
:10069B00C3E49FFFE49EFE22C5F0F8A3E028F0C55B
:1006AB00F0F8E582158270021583E038F022A3F88A
:1006BB00E0C5F025F0F0E582158270021583E0C8E5
:1006CB0038F0E822BB0110E58229F582E5833AF583
:1006DB0083E0F5F0A3E0225009E92582F886F008C3
:1006EB00E622BBFE0AE92582F8E2F5F008E222E5F4
:1006FB00832AF583E993F5F0A3E99322E88FF0A41D
:10070B00CC8BF0A42CFCE98EF0A42CFC8AF0EDA48D
:10071B002CFCEA8EF0A4CDA8F08BF0A42DCC3825C0
:10072B00F0FDE98FF0A42CCD35F0FCEB8EF0A4FEA0
:10073B00A9F0EB8FF0A4CFC5F02ECD39FEE43CFC35
:10074B00EAA42DCE35F0FDE43CFC2275F008758251
:10075B0000EF2FFFEE33FECD33CDCC33CCC5823340
:10076B00C5829BED9AEC99E58298400CF582EE9B45
:10077B00FEED9AFDEC99FC0FD5F0D6E4CEFBE4CD63
:10078B00FAE4CCF9A88222B800C1B90059BA002DFD
:10079B00EC8BF084CFCECDFCE5F0CBF97818EF2FB6
:1007AB00FFEE33FEED33FDEC33FCEB33FB10D703E5
:1007BB00994004EB99FB0FD8E5E4F9FA227818EF8E
:1007CB002FFFEE33FEED33FDEC33FCC933C910D7ED
:1007DB00059BE99A4007EC9BFCE99AF90FD8E0E4FA
:1007EB00C9FAE4CCFB2275F010EF2FFFEE33FEEDD0
:1007FB0033FDCC33CCC833C810D7079BEC9AE899A0
:10080B00400AED9BFDEC9AFCE899F80FD5F0DAE481
:10081B00CDFBE4CCFAE4C8F922C3E49FFFE49EFECF
:10082B00E49DFDE49CFC22EB9FF5F0EA9E42F0E98F
:10083B009D42F0EC6480C864809845F022EB9FF5F4
:10084B00F0EA9E42F0E99D42F0E89C45F022E86018
:10085B000FECC313FCED13FDEE13FEEF13FFD8F1FA
:10086B0022BB010789828A830209615005E9F802DC
:10087B000955BBFE05E9F802096D89828A830209D5
:10088B00797401FF3395E0FEFDFCA3A3A3E0CF2F0A
:10089B00F0E582158270021583E0CE3EF0E58215FD
:1008AB008270021583E0CD3DF0E582158270021552
:1008BB0083E0CC3CF022ECF0A3EDF0A3EEF0A3EF41
:1008CB00F022A8828583F0D083D0821208E412082C
:1008DB00E41208E41208E4E473E493A3C583C5F0BF
:1008EB00C583C8C582C8F0A3C583C5F0C583C8C579
:1008FB0082C822F5F0C582A4C582C5F0C583A425A4
:10090B0083F58322BB010789828A830209925005F2
:10091B00E9F8020989BBFE05E9F802099B89828A7D
:10092B00830209A4D083D082F8E4937012740193EC
:10093B00700DA3A393F8740193F5828883E4737409
:10094B0002936860EFA3A3A380DFE6FC08E6FD0833
:10095B00E6FE08E6FF22E0FCA3E0FDA3E0FEA3E039
:10096B00FF22E2FC08E2FD08E2FE08E2FF22E4932C
:10097B00FC740193FD740293FE740393FF22E6FB58
:10098B0008E6FA08E6F922E0FBA3E0FAA3E0F92275
:10099B00E2FB08E2FA08E2F922E493FB740193FA12
:1009AB00740293F92243BA80E59D603178FAE6FB35
:1009BB00AF9FC3EF9BFFE49400FEE49400FDE4942F
:1009CB0000FC7BE07A2879017800120707E42FFFFF
:1009DB00EE3451FEED3425FDEC3402802E78FBE62F
:1009EB00FBAF9FC3EF9BFFE49400FEE49400FDE498
:1009FB009400FCE47B807ABBF9F8120707E42FFF25
:100A0B00EE3436FEED346EFDEC3401FC9001F01249
:100A1B0008C19001F0E0FCA3E0FDA3E0FEA3E0FF22
:100A2B00C00790FE01E0FBE4FAF9F8D00712079239
:100A3B009001F01208C17FC07EF67D577C009001BB
:100A4B00F0E0F8A3E0F9A3E0FAA3E0FBC312084837
:100A5B0050097F007E607D547C00227FC07E267D06
:100A6B00827C009001F0E0F8A3E0F9A3E0FAA3E0A8
:100A7B00FBC312084850097F807E8D7D5B7C002272
:100A8B007F807EED7DAF7C009001F0E0F8A3E0F974
:100A9B00A3E0FAA3E0FBC312084850097F007EC015
:100AAB007DA87C00227F807E2D7DE87C009001F06C
:100ABB00E0F8A3E0F9A3E0FAA3E0FBC31208485067
:100ACB00097F007E1B7DB77C00227F807E367D25D3
:100ADB007C019001F0E0F8A3E0F9A3E0FAA3E0FBBE
:100AEB00C312084850097F007E407D197C01227F8C
:100AFB00807E567D417C019001F0E0F8A3E0F9A3E4
:100B0B00E0FAA3E0FBC312084850097F007E2D7D5D
:100B1B00317C01227F007EDB7D5F7C019001F0E068
:100B2B00F8A3E0F9A3E0FAA3E0FBC31208485009CD
:100B3B007F007E807D517C01227F607E197D857CCC
:100B4B00019001F0E0F8A3E0F9A3E0FAA3E0FBC306
:100B5B0012084850097F007E367D6E7C01227F2073
:100B6B007EE07DB27C019001F0E0F8A3E0F9A3E018
:100B7B00FAA3E0FBC312084850097FC07EFC7D9BA3
:100B8B007C01227FE07EA67DE07C019001F0E0F805
:100B9B00A3E0F9A3E0FAA3E0FBC312084850097FD6
:100BAB00807EC37DC97C01227F607E2B7DFF7C0113
:100BBB009001F0E0F8A3E0F9A3E0FAA3E0FBC31285
:100BCB00084850097F007E407DFA7C01227F607EC1
:100BDB00477D247C029001F0E0F8A3E0F9A3E0FA52
:100BEB00A3E0FBC312084850097FC07E0E7D167C24
:100BFB0002227F007E6D7D4A7C029001F0E0F8A31B
:100C0B00E0F9A3E0FAA3E0FBC312084850097F0008
:100C1B007E807D327C02227F807EDE7D807C029016
:100C2B0001F0E0F8A3E0F9A3E0FAA3E0FBC312089C
:100C3B004850097F007E5A7D627C02227F807EE7CE
:100C4B007DBD7C029001F0E0F8A3E0F9A3E0FAA3EC
:100C5B00E0FBC31208485008E4FFFE7DA37C022290
:100C6B007F007E6C7DDC7C0222ED6003020D17EFB2
:100C7B0054F0F9FB7A007013EF540FFEF87401086F
:100C8B008002C333D8FCF452935294EB64104A7035
:100C9B0013EF540FFEF87401088002C333D8FCF431
:100CAB0052915292E964207013EF540FFEF87401C5
:100CBB00088002C333D8FCF452955296E9FB7A00B4
:100CCB0064307013EF540FFEF87401088002C333C5
:100CDB00D8FCF452B152B2EB64404A7013EF540F8C
:100CEB00FEF87401088002C333D8FCF452B352B43B
:100CFB00E964506003020F24EF540FFEF8740108EF
:100D0B008002C333D8FCF452C952CA22ED6401608D
:100D1B0003020DC7EF54F0F9FB7A007015EF540F77
:100D2B00FEF87401088002C333D8FCFEF45293EE34
:100D3B004294EB64104A7015EF540FFEF8740108DF
:100D4B008002C333D8FCFEF45291EE4292E9642048
:100D5B007015EF540FFEF87401088002C333D8FCF2
:100D6B00FEF45295EE4296E9FB7A0064307015EF73
:100D7B00540FFEF87401088002C333D8FCFEF45202
:100D8B00B1EE42B2EB64404A7015EF540FFEF874AB
:100D9B0001088002C333D8FCFEF452B3EE42B4E92F
:100DAB0064506003020F24EF540FFEF874010880A7
:100DBB0002C333D8FCFEF452C9020F21ED6402606A
:100DCB0003020E78EF54F0F9FB7A007015EF540F15
:100DDB00FEF87401088002C333D8FCFE4293EEF494
:100DEB005294EB64104A7015EF540FFEF87401081F
:100DFB008002C333D8FCFE4291EEF45292E9642098
:100E0B007015EF540FFEF87401088002C333D8FC41
:100E1B00FE4295EEF45296E9FB7A0064307015EFC2
:100E2B00540FFEF87401088002C333D8FCFE42B1A4
:100E3B00EEF452B2EB64404A7015EF540FFEF874A7
:100E4B0001088002C333D8FCFE42B3EEF452B4E97E
:100E5B0064506003020F24EF540FFEF874010880F6
:100E6B0002C333D8FCFE42C9EEF452CA22ED64032E
:100E7B006003020F24EF54F0FD7C007014EF540F4D
:100E8B00FEF87401088002C333D8FCFE4293EE4295
:100E9B0094ED64104C7014EF540FFEF8740108803D
:100EAB0002C333D8FCFE4291EE4292EF54F0642021
:100EBB007014EF540FFEF87401088002C333D8FC92
:100ECB00FE4295EE4296EF54F0FD7C0064307014B8
:100EDB00EF540FFEF87401088002C333D8FCFE42B6
:100EEB00B1EE42B2ED64404C7014EF540FFEF87447
:100EFB0001088002C333D8FCFE42B3EE42B4EF5478
:100F0B00F064507014EF540FFEF87401088002C3A4
:100F1B0033D8FCFE42C9EE42CA229001F0EFF0E456
:100F2B009001F9F0A3F043BA809001F0E0FF1213A7
:100F3B009A9001F1E0F8A3E0F9A3E0FAA3E0FB90AB
:100F4B00022EE0FCA3E0FDA3E0FEA3E0FF1207925C
:100F5B0078101208599001F9EEF0A3EFF09001F11F
:100F6B00E0F8A3E0F9A3E0FAA3E0FB90022EE0FC8B
:100F7B00A3E0FDA3E0FEA3E0FF120792C006C007AB
:100F8B009001FAE02401FF9001F9E03400AB07FA7D
:100F9B00E4F9F8D007D006120792EF24FFFFEE34E6
:100FAB00FF9001F7F0A3EFF09001F5E0FCA3E0FD5B
:100FBB00E41203BA7B007A40791C784612029FC078
:100FCB0004C005C006C0079001F7E0FCA3E0FDE4F8
:100FDB001203BAD003D002D001D000120196120333
:100FEB00F3AD07AC069001F0E0FFD374409F748023
:100FFB00F89840030210D790FEB5C083C082E0FF83
:10100B009001F0E0FEC4540F24FCF925E0FBF874CA
:10101B0001088002C333D8FC4FD082D083F090FEFE
:10102B00B6C083C082E0FFEE5403FEA80308800223
:10103B00C333D8FC4FD082D083F0E9C31324ECFF29
:10104B00E434FE8F82F583C083C082E0FF9001F011
:10105B00E0F9C4540FFE540125E025E0FBF87401C0
:10106B00088002C333D8FC4FD082D083F0EE24E447
:10107B00FFE434FE8F82F583E04460F0E04408F037
:10108B009001F7E0FFA3E090FEF2CFF0A3EFF0901A
:10109B0001F9E0FFA3E090FEF0CFF0A3EFF0E9C47D
:1010AB00540F24FCFFE434FFFEEF25E0FFEE33FE8C
:1010BB00EF24F5FFEE34FE8F82F583ECF0A3EDF019
:1010CB0090FEFD7480F090FEE00211C390FEB1C063
:1010DB0083C082E0FB9001F0E0FA5401F97E0074CA
:1010EB0001A801088005C333CE33CED8F9FFEAC47B
:1010FB00540F25E0FAEFA802088005C333CE33CE98
:10110B00D8F94BD082D083F090FEB2C083C082E07E
:10111B00FF9001F0E05407C313FEA802088002C33E
:10112B0033D8FC4FD082D083F09001F0E0FFC41392
:10113B00540724CCFBE434FE8B82F583C083C0823E
:10114B00E0FEEFC4540FFF540125E025E0FBE92539
:10115B00E02BFBF87401088002C333D8FC4ED0821D
:10116B00D083F0EF24C8FFE434FE8F82F583E04494
:10117B0060F0E04408F09001F7E0FFA3E090FED2AE
:10118B00CFF0A3EFF09001F9E0FFA3E090FED0CFFA
:10119B00F0A3EFF09001F0E0C4540F75F002A4241B
:1011AB00D5FFE5F034FE8F82F583ECF0A3EDF090E4
:1011BB00FEDD7480F090FEC07401F0229001F0EF20
:1011CB00F0A3EDF0A3EBF0A3E0F8A3E0F9A3E0FAB2
:1011DB00A3E0FB90022EE0FCA3E0FDA3E0FEA3E066
:1011EB00FF120792E47B04FAF9F8120792C3E49F0B
:1011FB00FFE49EAD07FC9001F0E01470030212A017
:10120B001470030212E314700302133C24036003F3
:10121B000213999001F7E0FB7A0064017014439874
:10122B00508D8BECF58D438E40D28EE49001CAF03D
:10123B008011EB64024A700B4398508DD7ECF5D6B6
:10124B00438E1553A23F9001F1E0F9FF7E00700829
:10125B00A3E0640170028035EF64024E700D9001C3
:10126B00F2E06403700543A2408022E96404700D30
:10127B009001F2E06405700543A2808010E96406DA
:10128B00700B9001F2E06407700343A2C0E490017D
:10129B00CAF0D2AC229001F7E06402700B439A10B3
:1012AB008DD7ECF5D6438E1453BAFE9001F1E0FFC7
:1012BB007E0064087008A3E0640970028011EF647B
:1012CB000A4E700B9001F2E0640B700343BA0143BA
:1012DB00AF01E49001CBF0229001F7E0FB7A0064C0
:1012EB0002700D43AC108DD7ECF5D6438E148011E4
:1012FB00EB64034A700B43AC508DD5ECF5D443D162
:10130B000A53BAFD9001F1E0FF7E00640C7008A354
:10131B00E0640D70028011EF640E4E700B9001F2C1
:10132B00E0640F700343BA0243AF08E49001CCF0C2
:10133B00229001F7E0FB7A006402700D4384108D5C
:10134B00D7ECF5D6438E148011EB64044A700B4333
:10135B0084508DD3ECF5D243D1A053BAFB9001F15D
:10136B00E0FF7E0064107008A3E064117002801629
:10137B00EF64124E70109001F2E064137008F5CA1E
:10138B0075C90443BA0443AF10E49001CDF022EFCA
:10139B0012092F142000142701142E0214350314E4
:1013AB003C04144305144A10145111145812145FC1
:1013BB0013146614146D15147420147B21148222DB
:1013CB00148923149024149725149E3014A53114DA
:1013DB00AB3214B13314B73414BD3514C33614C93E
:1013EB003714CF4014D54114DB4214E14314E750BA
:1013FB0014ED5114F35214F95314FF6015056115D4
:10140B000B6215116315177014C371151D7215231B
:10141B00730000152A7D017F100215277D017F11B6
:10142B000215277D017F200215277D017F210215E3
:10143B00277D017F600215277D017F610215277DC6
:10144B00017F120215277D017F130215277D017F76
:10145B00220215277D017F230215277D017F620262
:10146B0015277D017F630215277D017F1402152748
:10147B007D017F150215277D017F240215277D0134
:10148B007F250215277D017F640215277D017F656E
:10149B000215277D017F160215277D017F17807CA2
:1014AB007D017F2680767D017F2780707D017F66A1
:1014BB00806A7D017F6780647D017F34805E7D0162
:1014CB007F3380587D017F2080527D017F17804CB8
:1014DB007D01E4FF80467D017F7480407D017F218B
:1014EB00803A7D017F5480347D017F01802E7D0108
:1014FB007F7580287D017F2280227D017F33801CB8
:10150B007D017F0280167D017F7680107D017F2318
:10151B00800A7D017F0380047D017F77120C74228A
:10152B009001ECE0FEA3E0FFC39001D1E09FFF90A0
:10153B0001D0E09EFE9001D4F0A3EFF09001E7E024
:10154B002FF09001E6E03EF0121C59AC06AD07EC13
:10155B001203BA9001E2E0F8A3E0F9A3E0FAA3E0EA
:10156B00FB120196C004C005C006C0079001E6E05F
:10157B00FCA3E0FDEC1203BAD003D002D001D000E3
:10158B00120196C004C005C006C0079001D4E0FC50
:10159B00A3E0FDEC1203BA9001E8E0F8A3E0F9A395
:1015AB00E0FAA3E0FB120196D003D002D001D000E9
:1015BB001200A5C004C005C006C0079001D2E0FE12
:1015CB00A3E0FFC39001D5E09FFD9001D4E09EFC0A
:1015DB001203BA9001DCE0F8A3E0F9A3E0FAA3E070
:1015EB00FB120196C004C005C006C0079001EEE0D7
:1015FB00FCA3E0FDEC1203BAA804A905AA06AB07ED
:10160B00D007D006D005D00412029FD003D002D051
:10161B0001D0001200A51203F39001DAEEF0A3EF54
:10162B00F09001EDE02FFF9001ECE03E9001D6F041
:10163B00A3EFF09001D4E0FFA3E09001D2CFF0A391
:10164B00EFF0229001F0EBF0A3EAF0A3E9F0A31284
:10165B0008C178FB7C017D017BFF7A00797D7E00E0
:10166B007F0212054478FD7C017D017BFF7A0079B6
:10167B007F7E007F02120544E49001F7F0A3F09007
:10168B0001F7E0FEA3E0FFEE3395E0FDFC9001F3E4
:10169B00E0F8A3E0F9A3E0FAA3E0FBD3120848407B
:1016AB00599001F0E0FBA3E0FAA3E0F99001F7E019
:1016BB00FEA3E0FFF5828E831205A5FD9001F9E4F0
:1016CB00F0A3EDF08F828E83A31205A5FF9001F797
:1016DB00E0FCA3E0FDF5828C83EF1205E49001F9A9
:1016EB00A3E08D828C83A31205E49001F8E0240221
:1016FB00F09001F7E03400F080857B017A0179FBF3
:10170B00900203E4F0A37402F0E4FF121CBE9001FC
:10171B00F0E0FBA3E0FAA3E0F9A3A3A3E0FFA3E0AF
:10172B00900203CFF0A3EFF0E4FF121CBE7B017A13
:10173B000179FD900203E4F0A37402F0E4FF021CB4
:10174B00BE9001F1ECF0A3EDF09001F0EFF0D3744B
:10175B00409F7480F8985063A3E0FCA3E0FDE41273
:10176B0003BA7B007A40791C784612029FC004C0F2
:10177B0005C006C00790FEF2E0FCA3E0FDE41203F7
:10178B00BAD003D002D001D0001201961203F3900D
:10179B0001F3EEF0A3EFF09001F3E0FCA3E0FD907A
:1017AB0001F0E0C4540F24FCFFE434FFFEEF25E00E
:1017BB00FFEE33FEEF24F5FFEE80599001F1E0FCD4
:1017CB00A3E0FDE41203BA7B007A40791C78461241
:1017DB00029FC004C005C006C00790FED2E0FCA368
:1017EB00E0FDE41203BAD003D002D001D000120105
:1017FB00961203F39001F3EEF0A3EFF09001F3E0F8
:10180B00FCA3E0FD9001F0E0C4540F75F002A4249A
:10181B00D5FFE5F034FE8F82F583ECF0A3EDF022DB
:10182B00787FE4F6D8FD758107021872021929E456
:10183B0093A3F8E493A34003F68001F208DFF4804E
:10184B0029E493A3F85407240CC8C333C4540F449E
:10185B0020C8834004F456800146F6DFE4800B0178
:10186B0002040810204080901D68E47E019360BC48
:10187B00A3FF543F30E509541FFEE493A360010E10
:10188B00CF54C025E060A840B8E493A3FAE493A337
:10189B00F8E493A3C8C582C8CAC583CAF0A3C8C558
:1018AB0082C8CAC583CADFE9DEE780BEE47B107A53
:1018BB0027F9F890022EE0FCA3E0FDA3E0FEA3E0E5
:1018CB00FF120792900232EEF0A3EFF07B407A42C8
:1018DB00790F780090022EE0FCA3E0FDA3E0FEA3BD
:1018EB00E0FF120792EF24FEFFEE34FF900234F07C
:1018FB00A3EFF07F007E1B7DB77C0090022EE0F8FB
:10190B00A3E0F9A3E0FAA3E0FBD3120848500E9032
:10191B000235E004F07006900234E004F02212006D
:10192B00561219FA9001F11208CD00002710E4901D
:10193B0001F5F0A3F07F34120F25E4FF121C1712F0
:10194B00005E12199AC2C5121C929001ECEEF0A324
:10195B00EFF012152B9001DAE0FCA3E0FDEC120383
:10196B00BA7B5C7A8F791278401201961203F3904E
:10197B0001D9E02FF09001D8E03EF0E0FEA3E0FFAC
:10198B00121D26121D487F647E0012002680B69021
:10199B0001EEE4F0A304F0E49001ECF0A3F090016D
:1019AB00D004F0A374F4F09001E81208CD3D4CCCB8
:1019BB00CD9001E21208CD000000009001DC12086E
:1019CB00CD000000009001E07401F0A3742CF0E452
:1019DB009001D2F0A3F09001E6F0A3F09001D6F0C5
:1019EB00A3F09001D4F0A3F09001DAF0A3F022431E
:1019FB00FF101209B090022E1208C11218B7E4F5AD
:101A0B0094F593F592F591F596F595F5B2F5B1F54B
:101A1B00B4F5B3F5CAF5C9F5CCF5CBF5E2F5E1F5BF
:101A2B00DEF58EF598F59AF5ACF584F5A2F5BAF5D9
:101A3B00AFF5899001F31208CD0001C2009001F7B8
:101A4B007402F07B01E4FDFF0211C7C0E0C0F0C0DF
:101A5B0083C082C0D075D000C000C001C002C003DB
:101A6B00C004C005C006C007E58430E1085384FDFF
:101A7B009001CDE4F0E58430E0065384FE1200467D
:101A8B00D007D006D005D004D003D002D001D000AF
:101A9B00D0D0D082D083D0F0D0E032AF06E0FBA321
:101AAB00E475F0011206B9A9F0FA12058CFDEF14DA
:101ABB00601514601D1460252403702D9001CAE07D
:101ACB0070FA04F08D99229001CBE070FA04F08D3E
:101ADB009B229001CCE070FA04F08DAD229001CDE9
:101AEB00E070FA04F0AF058F8522C0E0C083C0829E
:101AFB00C0D075D000C007E59830E1085398FD9031
:101B0B0001CAE4F0E59830E0255398FEAF99EF64F5
:101B1B007F7016900236E0FF04F0D3EF94147480BC
:101B2B009480400A75C7608005900236E4F0D007B8
:101B3B00D0D0D082D083D0E032EF14601714601E67
:101B4B0014602714603024047037C28CE4F58CF5D4
:101B5B008AD28C22C28EE4F58DF58BD28E22538ED7
:101B6B00EFE4F5D6F5D7438E102253D1F7E4F5D435
:101B7B00F5D543D1082253D17FE4F5D2F5D343D128
:101B8B008022EF14601714601E14602514602C243F
:101B9B00047030AF8CEFFCAF8AEFFD8026AF8DEF7A
:101BAB00FCAF8BEFFD801CAFD6EFFCAFD7EFFD800A
:101BBB0012AFD4EFFCAFD5EFFD8008AFD2EFFCAF87
:101BCB00D3EFFDAF05AE0422C2D5E830E70FB2D597
:101BDB00E4C39BFBE49AFAE499F9E498F8EC30E758
:101BEB0017B2D5121C09120792E4C39BFBE49AFAB5
:101BFB00E499F9E498F8800312079230D50DE4C309
:101C0B009FFFE49EFEE49DFDE49CFC22EF14601814
:101C1B0014602014602614602C24047030E4F58AC0
:101C2B00F58C438904D28C22E4F58BF58D438940E6
:101C3B00D28E22E4F5D7F5D6438E1822E4F5D5F5EE
:101C4B00D443D10C22E4F5D3F5D243D1C022900179
:101C5B00ECE0FEA3E0FFC39001D1E09FFD9001D02B
:101C6B00E09EFC1203BA1203F3120066D39001E15B
:101C7B00E09FEE6480F89001E0E06480987E004085
:101C8B00037F00227F0122E4FF30B50E121B8DC3B0
:101C9B00E49FFFE49E9001F08007121B8D9001F0F2
:101CAB00EEF0A3EFF0E4FF121B449001F0E0FEA373
:101CBB00E0FF22900200EBF0A3EAF0A3E9F0AE07FD
:101CCB0090020374FFF5F01206B945F0600890021C
:101CDB0000121AA680EA22C0E0C083C082E59A30C7
:101CEB00E108539AFD9001CBE4F0E59A30E0035301
:101CFB009AFED082D083D0E032C0E0C083C082E5B0
:101D0B00AC30E10853ACFD9001CCE4F0E5AC30E035
:101D1B000353ACFED082D083D0E032C3EF94C4EE39
:101D2B00940940047E097FC4D3EF9400EE940050D5
:101D3B0003E4FEFFAD07AC067F3402174C9001ECB9
:101D4B00E0FFA3E09001CECFF0A3EFF07B017A018F
:101D5B0079CE7F027E007D007C0002164E44022E5F
:0F1D6B000000000042023200004202340000007B
:00000001FF
