:100000000215EF02007853EFFE323202001253EF76
:10001000FD323202000A53EFFB323202001A53EF74
:02002000FE32AE
:100023000218A290025DE0FCA3E0FDED1D70011C2F
:1000330014AA044C70F5EF1F70011E144E70E422D5
:0E004300021A719001FFE585F02253EFFD32A5
:06005300020006C2AF220C
:06005B0002000ED2AF22EC
:1000630002001E4402590000000042025D000042EB
:0D007300025F000000C2CA32256C660A0060
:0300830002001662
:03008B00021A93C3
:030093000218034D
:03009B0002004D13
:1000A300021A02020478E86480F8E933E833601145
:1000B3000460F0ED33EC337009E8FCE9FDEAFEEB94
:1000C300FF220460DED3EB9FEA9EE99DE8C2E78C42
:1000D300F0C2F795F0400CE8CCF8E9CDF9EACEFA96
:1000E300EBCFFB12044385D0F05804700320D5B343
:1000F300E80470075002B2D502048292D5EC046082
:10010300F7E4CCC0E0C398F8603B94186008400D56
:10011300D0E0FB02045AE4FBFAC9FC8028E830E48F
:1001230006E4C9FBE4CAFCE830E305E4C9CACBFC36
:10013300E854076010F8C3E913F9EA13FAEB13FB69
:10014300EC13FCD8F130F52FC3E49CFCEF9BFFEEDE
:100153009AFEED99FDD0E0FBEF4E4D4C701222DB81
:100163000302047FEC2CFCEF33FFEE33FEED33FD93
:10017300ED30E7EB02045AEF2BFFEE3AFEED39FDCB
:10018300D0E0FB50130BBB0003020482ED13FDEE22
:1001930013FEEF13FFEC13FC02045AEC4D6011E85D
:1001A300497017ED33EC3304600DE4FCFFFEFD22D0
:1001B300E933E8330470F802047812044358046006
:1001C30009E4CC2481500628500902048228400304
:1001D30002047FC0E0EB4A7044B98006D0E0FB0222
:1001E300046EEF4E701CBD8008EBFFEAFEE9FD8054
:1001F300EBE98DF0A4FEE5F0020287E9CDF9EAFE12
:10020300EBFFEF89F0A4FCE5F0CE89F0A42EFFE428
:1002130035F0CD89F0A42DFEE435F08067EF4E7004
:1002230005BD80D780C3EF8BF0A4ACF0EE8BF0A4B8
:100233002CFCE435F0F8EF8AF0A42CE5F038FCE46C
:1002430033CB8DF0A42CFCE5F03BF8EE8AF0A42C24
:10025300FCE5F038F8E433CF89F0A42CFCE5F03862
:10026300CF3400CE89F0A42FFFE5F03EFEE433C97E
:100273008DF0A42EFEE5F039CD8AF0A42FFFE5F032
:100283003EFEE43DFD33D0E0FB50070BBB000F0205
:100293000482EC2CFCEF33FFEE33FEED33FD02045E
:1002A3005A020482EC5D046005E8590470030204F9
:1002B30078120443580460F6EC4860F2EC7004FDD5
:1002C300FEFF22C860DB2481C85009C39860025036
:1002D3000602047F9850CAF582E9294B4A7005ABA0
:1002E3008202046E75F0007C1A7880C3EF9BEE9A4D
:1002F300ED99400DC3EF9BFFEE9AFEED99FDE842A9
:10030300F0DC23ACF0D0E0FFD0E0FED0E0FDAB8228
:1003130020E7101BEB60BAEC2CFCEF33FFEE33FE4F
:10032300ED33FD02045AE803F830E705C0F075F039
:1003330000EF2FFFEE33FEED33FD40B830E7C28010
:10034300AA74F8CC6480CCC86480C8F58204604F7A
:10035300C3EB9FF5F0EA9E42F0E99D42F0E89C452D
:10036300F0603C501DE5825FFFE582D313CB5BCB8E
:10037300F42B5582FB50280ABA002409B90020083F
:10038300801DE5825BFBE582D313CF5FCFF4C313FC
:100393002F5582FF50090EBE00050DBD00010CC391
:1003A300EB9FF5F0EA9E42F0E99D42F0E89C45F0B0
:1003B3006007CC4820E701B3EC22ED33EC33600A4D
:1003C300047003BD8004ECB2E7FC2275F020800EBC
:1003D30075F010800575F0087D007E007F00339274
:1003E300D530D5031209EFEC334010EF33FFEE3372
:1003F300FEED33FDEC33FCD5F0ED22E5F0247EA2D7
:10040300D513CC92E7CDCEFF22EDD2E7CD33EC333B
:1004130092D524814006E4FFFEFDFC22FCE4CFCE0E
:10042300CDCC24E0501174FF80EDC3CC13CCCD139D
:10043300CDCE13CECF13CF0470F030D5DE0209EF4B
:10044300E9D2E7C933E833F892D5EDD2E7CD33ECFF
:1004530033FC5002B2D522EC30E7100FBF000C0E74
:10046300BE00080DBD00040BEB6014A2D5EB13FC1A
:10047300ED92E7FD2274FFFCFDFEFF22E480F8A26B
:10048300D574FF13FC7D80E480EFF920E73624F96F
:1004930050037907E4F42402FBE582158270021508
:1004A30083DBF6E024FB501BE96014E4F0E58215DE
:1004B3008270021583E004F0B40A08E4F0D9EE7404
:1004C30001F00A22C2D522ED33EC3392D5FA602A29
:1004D300B4FF33EDC2E77BFF60067A0479EFE422D1
:1004E3007A0479F820D5047A0479F3224E614E0018
:1004F3002B494E46002D494E4600E47A08F0A3DA14
:10050300FC7B00740722C083C082ECC0E0EDC0E036
:10051300EEC0E0EFC0E0EA75F010A4CAABF075F0EE
:100523004DA42BFBE435F0FCEA2410FAEB34C5FBB5
:10053300EC34D9FCEDC2E7FF75F056A4F42411C5E1
:10054300F0F434C58FF0A42AE5F03BE43CF020E757
:10055300141205FFD0E0FFD0E0FED0E0FDD0E0FCB8
:100563001202A78014F4041205FFD0E0FFD0E0FECE
:10057300D0E0FDD0E0FC12019ED082D083E0FAED02
:10058300D2E7CD33EC332482FBE4C3CF33CFCE3376
:10059300CECD33CD33DBF37B0775F00A846004F0F3
:1005A300A31B0AE5F0F0A38FF0740AA4FFACF08E4E
:1005B300F0740AA42CFEACF050010C8DF0740AA464
:1005C3002CFDE435F0F0A3DBDE7407223F8000004E
:1005D3004120000042C80000447A0000461C40004D
:1005E30047C35000497424004B1896804CBEBC206E
:1005F3005A0E1BCA6753C21C749DC5AEFB600654DA
:1006030007601C232312062DEB54386009120619C8
:1006130012062812019EECF8EDF9EEFAEFCB22EB6D
:1006230012062880F1543803241C9005CFFE93FC56
:100633000EEE93FD0EEE930ECE93FF22E709F6081E
:10064300DFFA8046E709F208DFFA803E88828C836E
:10065300E709F0A3DFFA8032E309F608DFFA8078CE
:10066300E309F208DFFA807088828C83E309F0A340
:10067300DFFA806489828A83E0A3F608DFFA805870
:1006830089828A83E0A3F208DFFA804C80D280FA61
:1006930080C680D4806980F28033801080A680EA8F
:1006A300809A80A880DA80E280CA803389828A8334
:1006B300ECFAE493A3C8C582C8CCC583CCF0A3C825
:1006C300C582C8CCC583CCDFE9DEE7800D89828A89
:1006D30083E493A3F608DFF9ECFAA9F0EDFB228992
:1006E300828A83ECFAE0A3C8C582C8CCC583CCF068
:1006F300A3C8C582C8CCC583CCDFEADEE880DB892A
:10070300828A83E493A3F208DFF980CC88F0EF6058
:10071300010E4E60C388F0ED2402B4040050B9F515
:1007230082EB2402B4040050AF23234582239006B6
:100733008F73C2D530F707B2D563F0FF05F030E70A
:100743000CB2D5F4048463F0FF05F080018430D546
:1007530002F40422BB010689828A83E0225002E765
:1007630022BBFE02E32289828A83E49322BB010C2B
:10077300E58229F582E5833AF583E0225006E925EF
:1007830082F8E622BBFE06E92582F8E222E5822909
:10079300F582E5833AF583E49322BB010689828AD5
:1007A30083F0225002F722BBFE01F322F8BB010DB6
:1007B300E58229F582E5833AF583E8F0225006E9DC
:1007C3002582C8F622BBFE05E92582C8F222EF8DF9
:1007D300F0A4A8F0CF8CF0A428CE8DF0A42EFE2296
:1007E300BC000BBE0029EF8DF084FFADF022E4CCFA
:1007F300F875F008EF2FFFEE33FEEC33FCEE9DECC3
:10080300984005FCEE9DFE0FD5F0E9E4CEFD22ED08
:10081300F8F5F0EE8420D21CFEADF075F008EF2F52
:10082300FFED33FD4007985006D5F0F222C398FD43
:100833000FD5F0EA22C2D5EC30E709B2D5E4C39D67
:10084300FDE49CFCEE30E715B2D5E4C39FFFE49EC4
:10085300FE1207E3C3E49DFDE49CFC80031207E35F
:1008630030D507C3E49FFFE49EFE22C5F0F8A3E062
:1008730028F0C5F0F8E582158270021583E038F0A0
:1008830022A3F8E0C5F025F0F0E582158270021589
:1008930083E0C838F0E822BB0110E58229F582E540
:1008A300833AF583E0F5F0A3E0225009E92582F8C5
:1008B30086F008E622BBFE0AE92582F8E2F5F00895
:1008C300E222E5832AF583E993F5F0A3E99322E88D
:1008D3008FF0A4CC8BF0A42CFCE98EF0A42CFC8A22
:1008E300F0EDA42CFCEA8EF0A4CDA8F08BF0A42D9F
:1008F300CC3825F0FDE98FF0A42CCD35F0FCEB8E40
:10090300F0A4FEA9F0EB8FF0A4CFC5F02ECD39FEF5
:10091300E43CFCEAA42DCE35F0FDE43CFC2275F06A
:1009230008758200EF2FFFEE33FECD33CDCC33CCF1
:10093300C58233C5829BED9AEC99E58298400CF50C
:1009430082EE9BFEED9AFDEC99FC0FD5F0D6E4CE3A
:10095300FBE4CDFAE4CCF9A88222B800C1B900596E
:10096300BA002DEC8BF084CFCECDFCE5F0CBF9783B
:1009730018EF2FFFEE33FEED33FDEC33FCEB33FBCF
:1009830010D703994004EB99FB0FD8E5E4F9FA2259
:100993007818EF2FFFEE33FEED33FDEC33FCC93354
:1009A300C910D7059BE99A4007EC9BFCE99AF90F1C
:1009B300D8E0E4C9FAE4CCFB2275F010EF2FFFEE88
:1009C30033FEED33FDCC33CCC833C810D7079BECD3
:1009D3009AE899400AED9BFDEC9AFCE899F80FD54B
:1009E300F0DAE4CDFBE4CCFAE4C8F922C3E49FFFD8
:1009F300E49EFEE49DFDE49CFC22EB9FF5F0EA9E61
:100A030042F0E99D42F0EC6480C864809845F0228E
:100A1300EB9FF5F0EA9E42F0E99D42F0E89C45F039
:100A230022E8600FECC313FCED13FDEE13FEEF138E
:100A3300FFD8F122BB010789828A83020B4C500540
:100A4300E9F8020B40BBFE05E9F8020B5889828ADC
:100A530083020B647401FF3395E0FEFDFCA3A3A3A3
:100A6300E0CF2FF0E582158270021583E0CE3EF0D1
:100A7300E582158270021583E0CD3DF0E582158293
:100A830070021583E0CC3CF022ECF0A3EDF0A3EE72
:100A9300F0A3EFF022A8828583F0D083D082120ADC
:100AA300AF120AAF120AAF120AAFE473E493A3C5FD
:100AB30083C5F0C583C8C582C8F0A3C583C5F0C587
:100AC30083C8C582C822F5F0C582A4C582C5F0C516
:100AD30083A42583F58322F8E0FBA3A3E0F925F0A3
:100AE300F0E582158270021583E0FA38F022EBF00C
:100AF300A3EAF0A3E9F022BB010789828A83020BF0
:100B03007D5005E9F8020B74BBFE05E9F8020B867C
:100B130089828A83020B8FD083D082F8E493701288
:100B2300740193700DA3A393F8740193F5828883E2
:100B3300E4737402936860EFA3A3A380DFE6FC0869
:100B4300E6FD08E6FE08E6FF22E0FCA3E0FDA3E0E5
:100B5300FEA3E0FF22E2FC08E2FD08E2FE08E2FF5A
:100B630022E493FC740193FD740293FE740393FFD8
:100B730022E6FB08E6FA08E6F922E0FBA3E0FAA383
:100B8300E0F922E2FB08E2FA08E2F922E493FB74BB
:100B93000193FA740293F922E50824D1F582E4342F
:100BA30001F583E00508229001CE3007039001D1BF
:100BB300E475F001120ADA0207572000E97F2ED20A
:100BC300008018EF540F2490D43440D4FF30040B2A
:100BD300EF24BFB41A0050032461FFE50960021536
:100BE30009050CE50C7002050B30070E9001CEE4ED
:100BF30075F001120ADAEF02079D021AB57403D2E7
:100C0300078003E4C207F5089001CE120AF1E4F568
:100C130009F50BF50CE50960077F20120BDE80F563
:100C2300750AFFC201C200C202C203C205C206C2E4
:100C330008120BAAFF700D3007057F00120BEFAFF0
:100C43000CAE0B22B4255FC2D5C204120BAAFF243B
:100C5300D0B40A00501A75F00A780930D50508B6E1
:100C6300FF0106C6A426F620D5047002D20380D95C
:100C730024CFB41A00EF5004C2E5D204020EE1D22D
:100C83000180C6D20080C0D20280BCD2D580BAD245
:100C93000580B47F20120BDE2002077401B5090022
:100CA30040F1120B9BFF120BDE020C18D208D20686
:100CB3008095120B9BFB120B9BFA120B9BF94A4B71
:100CC300700679DF7A0F7BFF20022EE509602A7E0A
:100CD300008E8275830012077060060EEE650A703F
:100CE300F0C2D5EBC0E0EAC0E0E9C0E0EE120F428B
:100CF300D0E0F9D0E0FAD0E0FB120757FF60AAEB8F
:100D0300C0E0EAC0E0E9C0E0120BDED0E02401F964
:100D1300D0E03400FAD0E0FBE50A0460DCD50AD960
:100D23008087D20280A2120F2460F7E50A700104C3
:100D330012048DA90A600DE50A600914F50A120F61
:100D4300CCEF60F3EA30E702F404C3995079EAF494
:100D5300250A0430E701E404F50A800D120F24602C
:100D6300C1EA050A250A12048DEA9001FDF030E775
:100D730001E4250A04D50A0420050114120F42E4F4
:100D8300C0E0120FCC9001FDE0601320E70714F0E0
:100D9300120BC6802204F0D0E014C0E07F00120BD7
:100DA300C6E50A6007120BBD150A800B3005031256
:100DB3000BBDD0E0020C18D0E00480C4120F2460F5
:100DC3009EE50A0412048D9001FDEAF0E50A200570
:100DD300026001042404120F4274FF04C0E0120FE6
:100DE300CC120BC6E50A2005026003120BBDD0E04E
:100DF300B50AE87F45120BD09001FDE07F2B30E769
:100E0300047F2DF404C0E0120BDED0E075F00A84F9
:100E1300C0F0120BC7D0E0120BC7020C1879108078
:100E2300027908C206C2088008D2D5790A800479FB
:100E33000AC2D5E50A047002F50AE4FAFDFEFF12C0
:100E43000B9BFC7B08200113120B9BFD7B103000D6
:100E53000A120B9BFE120B9BFF7B20EC3382D59275
:100E6300D55013C3E43000069FFFE49EFEE4200147
:100E7300039DFDE49CFCE4CBF8C201EC700CCFCEE7
:100E8300CDCCE824F8F870F38017C3EF33FFEE33CB
:100E9300FEED33FDEC33FCEB33FB994002FB0FD843
:100EA300E9EB300105F8D0E0C448B201C0E00AEC38
:100EB3004D4E4F78207B0070C2EAB50A0040BCC09B
:100EC300E0120F44D0F0D0E0200104C4C0E0C4B26B
:100ED30001C0F0120BC7D0F0D5F0EB020C18120BC7
:100EE3001A0CB5530E20580C864C0C82420E244F1C
:100EF3000E2C440E2C490C9B430E32550D5F460DB0
:100F0300BF450D29470FFF500C8A2D0C8E2E0CB1B7
:100F13002B0C92230CAF200FE82A0C4A4800000C3C
:100F2300A9E50AB4FF03750A06120B9BFC120B9B7F
:100F3300FD120B9BFE120B9BFF9001F60204CA7974
:100F43000AA2D5200314300509B910020404B90814
:100F53000104A2D52006025001042002689202B5C2
:100F630009005034C0E07F203003197F30A20272A1
:100F7300067205500F120F9BC202C206C205C208B9
:100F83007F30800F300503E9C0E0120BDE3005032C
:100F9300D0E0F9D0E0B509CC3005177F30B9100C9B
:100FA300120BDE7F583004077F788003B9080312E1
:100FB3000BDE3002057F2D020BDE7F202008F87F39
:100FC3002B2006F322920280CF7F00B40700500B40
:100FD30024F6F582E43401F583E0FF22286E756C74
:100FE3006C2900D201120B9B3001F8C20178093041
:100FF300D50108F6020C4A2D50434958120B9B2485
:1010030003B405004001E4900FFA93120BCF743A36
:10101300120BCFD203750904020E2043BA80E59D5B
:10102300603178FAE6FBAF9FC3EF9BFFE49400FEC9
:10103300E49400FDE49400FC7BE07A2879017800D5
:101043001208D2E42FFFEE3451FEED3425FDEC34CB
:1010530002802E78FBE6FBAF9FC3EF9BFFE4940077
:10106300FEE49400FDE49400FCE47B807ABBF9F891
:101073001208D2E42FFFEE3436FEED346EFDEC346D
:1010830001FC9001CE120A8C9001CEE0FCA3E0FD9E
:10109300A3E0FEA3E0FFC00790FE01E0FBE4FAF942
:1010A300F8D00712095D9001CE120A8C7FC07EF63C
:1010B3007D577C009001CEE0F8A3E0F9A3E0FAA30A
:1010C300E0FBC3120A1350097F007E607D547C004D
:1010D300227FC07E267D827C009001CEE0F8A3E0D3
:1010E300F9A3E0FAA3E0FBC3120A1350097F807E41
:1010F3008D7D5B7C00227F807EED7DAF7C00900147
:10110300CEE0F8A3E0F9A3E0FAA3E0FBC3120A13CD
:1011130050097F007EC07DA87C00227F807E2D7DCC
:10112300E87C009001CEE0F8A3E0F9A3E0FAA3E0A5
:10113300FBC3120A1350097F007E1B7DB77C00227C
:101143007F807E367D257C019001CEE0F8A3E0F917
:10115300A3E0FAA3E0FBC3120A1350097F007E4009
:101163007D197C01227F807E567D417C019001CEDA
:10117300E0F8A3E0F9A3E0FAA3E0FBC3120A1350DB
:10118300097F007E2D7D317C01227F007EDB7D5F28
:101193007C019001CEE0F8A3E0F9A3E0FAA3E0FB21
:1011A300C3120A1350097F007E807D517C01227F88
:1011B300607E197D857C019001CEE0F8A3E0F9A360
:1011C300E0FAA3E0FBC3120A1350097F007E367DC9
:1011D3006E7C01227F207EE07DB27C019001CEE017
:1011E300F8A3E0F9A3E0FAA3E0FBC3120A13500942
:1011F3007FC07EFC7D9B7C01227FE07EA67DE07C20
:10120300019001CEE0F8A3E0F9A3E0FAA3E0FBC369
:10121300120A1350097F807EC37DC97C01227F603F
:101223007E2B7DFF7C019001CEE0F8A3E0F9A3E0E3
:10123300FAA3E0FBC3120A1350097F007E407DFA34
:101243007C01227F607E477D247C029001CEE0F802
:10125300A3E0F9A3E0FAA3E0FBC3120A1350097F4A
:10126300C07E0E7D167C02227F007E6D7D4A7C024D
:101273009001CEE0F8A3E0F9A3E0FAA3E0FBC312E8
:101283000A1350097F007E807D327C02227F807E9C
:10129300DE7D807C029001CEE0F8A3E0F9A3E0FAC2
:1012A300A3E0FBC3120A1350097F007E5A7D627CC0
:1012B30002227F807EE77DBD7C029001CEE0F8A311
:1012C300E0F9A3E0FAA3E0FBC3120A135008E4FF1A
:1012D300FE7DA37C02227F007E6C7DDC7C0222905B
:1012E30001CEEFF0A3EDF0A3EBF0A3E0F8A3E0F958
:1012F300A3E0FAA3E0FB900259E0FCA3E0FDA3E026
:10130300FEA3E0FF12095DE47B04FAF9F812095D1C
:10131300C3E49FFFE49EAD07FC9001CEE01470038D
:101323000213BB1470030213FE1470030214572438
:101333000360030214B49001D5E0FB7A00640170EA
:10134300144398508D8BECF58D438E40D28EE490F0
:1013530001CAF08011EB64024A700B4398508DD799
:10136300ECF5D6438E1553A23F9001CFE0F9FF7EF3
:10137300007008A3E0640170028035EF64024E70D0
:101383000D9001D0E06403700543A2408022E9641C
:1013930004700D9001D0E06405700543A2808010B5
:1013A300E96406700B9001D0E06407700343A2C0A8
:1013B300E49001CAF0D2AC229001D5E06402700B34
:1013C300439A108DD7ECF5D6438E1453BAFE900191
:1013D300CFE0FF7E0064087008A3E0640970028018
:1013E30011EF640A4E700B9001D0E0640B7003435D
:1013F300BA0143AF01E49001CBF0229001D5E0FBA9
:101403007A006402700D43AC108DD7ECF5D6438E91
:10141300148011EB64034A700B43AC508DD5ECF58B
:10142300D443D10A53BAFD9001CFE0FF7E00640C90
:101433007008A3E0640D70028011EF640E4E700B10
:101443009001D0E0640F700343BA0243AF08E49005
:1014530001CCF0229001D5E0FB7A006402700D43C9
:1014630084108DD7ECF5D6438E148011EB64044AB7
:10147300700B4384508DD3ECF5D243D1A053BAFB08
:101483009001CFE0FF7E0064107008A3E064117048
:10149300028016EF64124E70109001D0E064137056
:1014A30008F5CA75C90443BA0443AF10E49001CDEB
:1014B300F022900229E0F8A3E0F9A3E0FAA3E0FB0D
:1014C300900201E0FCA3E0FDA3E0FEA3E0FF120015
:1014D300A9900209120A8C900221E0FCA3E0FDA36B
:1014E300E0FEA3E0FF900209E0F8A3E0F9A3E0FA2D
:1014F300A3E0FB1200AD900221120A8C1219C3ACB7
:1015030006AD07EC1203D390021DE0F8A3E0F9A3A4
:10151300E0FAA3E0FB12019E900221E0F8A3E0F9B8
:10152300A3E0FAA3E0FB12019EC004C005C006C0FD
:1015330007900209E0FCA3E0FDA3E0FEA3E0FF9017
:101543000225E0F8A3E0F9A3E0FAA3E0FB12019E71
:10155300D003D002D001D0001200ADC004C005C03A
:1015630006C007900205E0F8A3E0F9A3E0FAA3E0C0
:10157300FBA3E0FCA3E0FDA3E0FEA3E0FF1200A9B0
:10158300900215E0F8A3E0F9A3E0FAA3E0FB12014F
:101593009E90022DE0F8A3E0F9A3E0FAA3E0FB128A
:1015A30002A7D003D002D001D0001200AD900211E7
:1015B300120A8C900211E0FCA3E0FDA3E0FEA3E07D
:1015C300FF900229E0F8A3E0F9A3E0FAA3E0FB12FD
:1015D30000AD90020D120A8C900209E0FCA3E0FD1D
:1015E300A3E0FEA3E0FF900205020A8C787FE4F6F5
:1015F300D8FD7581210216360217AEE493A3F8E4F1
:1016030093A34003F68001F208DFF48029E493A357
:10161300F85407240CC8C333C4540F4420C8834070
:1016230004F456800146F6DFE4800B01020408103F
:10163300204080900066E47E019360BCA3FF543F8A
:1016430030E509541FFEE493A360010ECF54C02577
:10165300E060A840B8E493A3FAE493A3F8E493A367
:10166300C8C582C8CAC583CAF0A3C8C582C8CAC5CB
:1016730083CADFE9DEE780BEE47B107A27F9F890BE
:101683000259E0FCA3E0FDA3E0FEA3E0FF12095D25
:1016930090025DEEF0A3EFF07B407A42790F780081
:1016A300900259E0FCA3E0FDA3E0FEA3E0FF1209D2
:1016B3005DEF24FEFFEE34FF90025FF0A3EFF07FB7
:1016C300007E1B7DB77C00900259E0F8A3E0F9A3EC
:1016D300E0FAA3E0FBD3120A13500E900260E00479
:1016E300F0700690025FE004F02290022D120A9837
:1016F3003F800000900229120A984248000090029D
:1017030001120A9842C80000900225120A983F1954
:10171300999A90021D120A983CA3D70A90021512B7
:101723000A983D4CCCCD900219120A98428C0000C5
:10173300900205120A9800000000900221120A98F4
:101743000000000090020D120A98000000002243DE
:10175300FF1012101E900259120A8C12167BE4F528
:1017630094F593F592F591F596F595F5B2F5B1F5F6
:10177300B4F5B3F5CAF5C9F5CCF5CBF5E2F5E1F56A
:10178300DEF58EF598F59AF5ACF584F5A2F5BAF584
:10179300AFF5899001D1120A980001C2009001D5DA
:1017A3007402F07B01E4FDFF0212E21200561217ED
:1017B3005212005E1216EDC2CC90020DE0FCA3E0C3
:1017C300FDA3E0FEA3E0FF900229120A8C1214B5D8
:1017D3007F647E00120026E4FBFA797A7844900253
:1017E3000DE0FCA3E0FDA3E0FEA3E0FF1202A7903F
:1017F30001D1120A8C7BFF7A00797B120C0680B729
:10180300C0E0C0F0C083C082C0D075D000C000C0AB
:1018130001C002C003C004C005C006C007E5843090
:10182300E1085384FD9001CDE4F0E58430E00653F4
:1018330084FE120046D007D006D005D004D003D0D2
:1018430002D001D000D0D0D082D083D0F0D0E0320B
:10185300AF06E0FBA3E475F001120884A9F0FA12C5
:101863000757FDEF14601514601D146025240370E1
:101873002D9001CAE070FA04F08D99229001CBE01B
:1018830070FA04F08D9B229001CCE070FA04F08D85
:10189300AD229001CDE070FA04F0AF058F8522C030
:1018A300E0C083C082C0D075D000C007E59830E1A6
:1018B300085398FD9001CAE4F0E59830E025539869
:1018C300FEAF99EF647F7016900261E0FF04F0D3DE
:1018D300EF941474809480400A75C7608005900269
:1018E30061E4F0D007D0D0D082D083D0E032E4904E
:1018F3000200F0D2A0C2A1C2A0D2A1D2A0C2A1F084
:10190300900200E0C39480748094805027C2A0E4C6
:10191300FD7F0D121A40900200E025E02401F582BC
:10192300E43400F583EEF0A3EFF0D2A0900200E0E0
:1019330004F080CC9000007401F022C2D5E830E7B7
:101943000FB2D5E4C39BFBE49AFAE499F9E498F85F
:10195300EC30E717B2D512197412095DE4C39BFB8F
:10196300E49AFAE499F9E498F8800312095D30D512
:101973000DE4C39FFFE49EFEE49DFDE49CFC2290E6
:1019830001CE120A8CE4FFFEFDFC9001CEE0F8A329
:10199300E0F9A3E0FAA3E0FB1203446011400F90C7
:1019A30001CEE0FCA3E0FDA3E0FEA3E0FF22900153
:1019B300CEE0FCA3E0FDA3E0FEA3E0FF1203BD2203
:1019C300900229E0F8A3E0F9A3E0FAA3E0FB900278
:1019D30001E0FCA3E0FDA3E0FEA3E0FF1200A912D7
:1019E3001982900219E0F8A3E0F9A3E0FAA3E0FB5F
:1019F3001203447E00600540037F00227F0122C062
:101A0300E0C0F0C083C082C0D075D000C000C00168
:101A1300C002C003C004C005C006C00753EFFB12D9
:101A230018F1D007D006D005D004D003D002D001DE
:101A3300D000D0D0D082D083D0F0D0E032A90553EB
:101A4300BCF0EF42BC43BC40E5BC30E5FB53BCDF1C
:101A5300AFBDEFFEADBEEDFFE4F5BDF5BEAD01EFED
:101A6300A805088005CEC313CE13D8F9FF22C0E022
:101A7300C083C082E59A30E108539AFD9001CBE41C
:101A8300F0E59A30E003539AFED082D083D0E0325F
:101A9300C0E0C083C082E5AC30E10853ACFD9001E7
:101AA300CCE4F0E5AC30E00353ACFED082D083D07D
:101AB300E0329001FEEFF0FDE4FF1218669001FEA4
:031AC300E0FF221F
:00000001FF
