:1000000002183302007A53EFFE323202001253EF2D
:10001000FD323202000A53EFFB323202001A53EF74
:02002000FE32AE
:10002300021AFE900233E0FCA3E0FDED1D70011CFB
:1000330014AA044C70F5EF1F70011E144E70E422D5
:0E004300021DA7900205E585F02253EFFD3265
:06005300020006C2AF220C
:06005B0002000ED2AF22EC
:1000630002001ED3EF9400EE64809480400122C30B
:0E007300E49FFFE49EFE22C2CA3203FCFC039F
:0300830002001662
:03008B00021DC98A
:03009300021A5FEF
:03009B0002004D13
:1000A300021CAF020467E86480F8E933E8336011A7
:1000B3000460F0ED33EC337009E8FCE9FDEAFEEB94
:1000C300FF220460DED3EB9FEA9EE99DE8C2E78C42
:1000D300F0C2F795F0400CE8CCF8E9CDF9EACEFA96
:1000E300EBCFFB12043285D0F05804700320D5B354
:1000F300E80470075002B2D502047192D5EC046093
:10010300F7E4CCC0E0C398F8603B94186008400D56
:10011300D0E0FB020449E4FBFAC9FC8028E830E4A0
:1001230006E4C9FBE4CAFCE830E305E4C9CACBFC36
:10013300E854076010F8C3E913F9EA13FAEB13FB69
:10014300EC13FCD8F130F52FC3E49CFCEF9BFFEEDE
:100153009AFEED99FDD0E0FBEF4E4D4C701222DB81
:100163000302046EEC2CFCEF33FFEE33FEED33FDA4
:10017300ED30E7EB020449EF2BFFEE3AFEED39FDDC
:10018300D0E0FB50130BBB0003020471ED13FDEE33
:1001930013FEEF13FFEC13FC020449EC4D6011E86E
:1001A300497017ED33EC3304600DE4FCFFFEFD22D0
:1001B300E933E8330470F802046712043258046028
:1001C30009E4CC2481500628500902047128400315
:1001D30002046EC0E0EB4A7044B98006D0E0FB0233
:1001E300045DEF4E701CBD8008EBFFEAFEE9FD8065
:1001F300EBE98DF0A4FEE5F0020287E9CDF9EAFE12
:10020300EBFFEF89F0A4FCE5F0CE89F0A42EFFE428
:1002130035F0CD89F0A42DFEE435F08067EF4E7004
:1002230005BD80D780C3EF8BF0A4ACF0EE8BF0A4B8
:100233002CFCE435F0F8EF8AF0A42CE5F038FCE46C
:1002430033CB8DF0A42CFCE5F03BF8EE8AF0A42C24
:10025300FCE5F038F8E433CF89F0A42CFCE5F03862
:10026300CF3400CE89F0A42FFFE5F03EFEE433C97E
:100273008DF0A42EFEE5F039CD8AF0A42FFFE5F032
:100283003EFEE43DFD33D0E0FB50070BBB000F0205
:100293000471EC2CFCEF33FFEE33FEED33FD02046F
:1002A30049020471EC5D046005E85904700302041B
:1002B30067120432580460F6EC4860F2EC7004FDF7
:1002C300FEFF22C860DB2481C85009C39860025036
:1002D3000602046E9850CAF582E9294B4A7005ABB1
:1002E3008202045D75F0007C1A7880C3EF9BEE9A5E
:1002F300ED99400DC3EF9BFFEE9AFEED99FDE842A9
:10030300F0DC23ACF0D0E0FFD0E0FED0E0FDAB8228
:1003130020E7101BEB60BAEC2CFCEF33FFEE33FE4F
:10032300ED33FD020449E803F830E705C0F075F04A
:1003330000EF2FFFEE33FEED33FD40B830E7C28010
:10034300AA74F8CC6480CCC86480C8F58204604F7A
:10035300C3EB9FF5F0EA9E42F0E99D42F0E89C452D
:10036300F0603C501DE5825FFFE582D313CB5BCB8E
:10037300F42B5582FB50280ABA002409B90020083F
:10038300801DE5825BFBE582D313CF5FCFF4C313FC
:100393002F5582FF50090EBE00050DBD00010CC391
:1003A300EB9FF5F0EA9E42F0E99D42F0E89C45F0B0
:1003B3006007CC4820E701B3EC2275F020800E756E
:1003C300F010800575F0087D007E007F003392D524
:1003D30030D50312082CEC334010EF33FFEE33FE1D
:1003E300ED33FDEC33FCD5F0ED22E5F0247EA2D510
:1003F30013CC92E7CDCEFF22EDD2E7CD33EC33928F
:10040300D524814006E4FFFEFDFC22FCE4CFCECDE3
:10041300CC24E0501174FF80EDC3CC13CCCD13CDAD
:10042300CE13CECF13CF0470F030D5DE02082CE903
:10043300D2E7C933E833F892D5EDD2E7CD33EC33C5
:10044300FC5002B2D522EC30E7100FBF000C0EBEF9
:1004530000080DBD00040BEB6014A2D5EB13FCEDFB
:1004630092E7FD2274FFFCFDFEFF22E480F8A2D593
:1004730074FF13FC7D80E480EFE709F608DFFA8060
:1004830046E709F208DFFA803E88828C83E709F0A9
:10049300A3DFFA8032E309F608DFFA8078E309F292
:1004A30008DFFA807088828C83E309F0A3DFFA8087
:1004B3006489828A83E0A3F608DFFA805889828AF6
:1004C30083E0A3F208DFFA804C80D280FA80C680F2
:1004D300D4806980F28033801080A680EA809A807D
:1004E300A880DA80E280CA803389828A83ECFAE4C6
:1004F30093A3C8C582C8CCC583CCF0A3C8C582C8A2
:10050300CCC583CCDFE9DEE7800D89828A83E4935F
:10051300A3F608DFF9ECFAA9F0EDFB2289828A83BE
:10052300ECFAE0A3C8C582C8CCC583CCF0A3C8C588
:1005330082C8CCC583CCDFEADEE880DB89828A838C
:10054300E493A3F208DFF980CC88F0EF60010E4E4C
:1005530060C388F0ED2402B4040050B9F582EB24A3
:1005630002B4040050AF23234582239004CC73C20A
:10057300D530F707B2D563F0FF05F030E70CB2D5FD
:10058300F4048463F0FF05F080018430D502F404A1
:1005930022BB010689828A83E0225002E722BBFE46
:1005A30002E32289828A83E49322BB010CE5822938
:1005B300F582E5833AF583E0225006E92582F8E6E1
:1005C30022BBFE06E92582F8E222E58229F582E5CF
:1005D300833AF583E49322BB010689828A83F0225E
:1005E3005002F722BBFE01F322F8BB010DE582297D
:1005F300F582E5833AF583E8F0225006E92582C8BF
:10060300F622BBFE05E92582C8F222EF8DF0A4A8ED
:10061300F0CF8CF0A428CE8DF0A42EFE22BC000BCC
:10062300BE0029EF8DF084FFADF022E4CCF875F025
:1006330008EF2FFFEE33FEEC33FCEE9DEC98400504
:10064300FCEE9DFE0FD5F0E9E4CEFD22EDF8F5F0CA
:10065300EE8420D21CFEADF075F008EF2FFFED33D2
:10066300FD4007985006D5F0F222C398FD0FD5F050
:10067300EA22C2D5EC30E709B2D5E4C39DFDE49C80
:10068300FCEE30E715B2D5E4C39FFFE49EFE1206ED
:1006930020C3E49DFDE49CFC800312062030D507B3
:1006A300C3E49FFFE49EFE22C5F0F8A3E028F0C553
:1006B300F0F8E582158270021583E038F022A3F882
:1006C300E0C5F025F0F0E582158270021583E0C8DD
:1006D30038F0E822BB0110E58229F582E5833AF57B
:1006E30083E0F5F0A3E0225009E92582F886F008BB
:1006F300E622BBFE0AE92582F8E2F5F008E222E5EC
:10070300832AF583E993F5F0A3E99322E88FF0A414
:10071300CC8BF0A42CFCE98EF0A42CFC8AF0EDA485
:100723002CFCEA8EF0A4CDA8F08BF0A42DCC3825B8
:10073300F0FDE98FF0A42CCD35F0FCEB8EF0A4FE98
:10074300A9F0EB8FF0A4CFC5F02ECD39FEE43CFC2D
:10075300EAA42DCE35F0FDE43CFC2275F008758249
:1007630000EF2FFFEE33FECD33CDCC33CCC5823338
:10077300C5829BED9AEC99E58298400CF582EE9B3D
:10078300FEED9AFDEC99FC0FD5F0D6E4CEFBE4CD5B
:10079300FAE4CCF9A88222B800C1B90059BA002DF5
:1007A300EC8BF084CFCECDFCE5F0CBF97818EF2FAE
:1007B300FFEE33FEED33FDEC33FCEB33FB10D703DD
:1007C300994004EB99FB0FD8E5E4F9FA227818EF86
:1007D3002FFFEE33FEED33FDEC33FCC933C910D7E5
:1007E300059BE99A4007EC9BFCE99AF90FD8E0E4F2
:1007F300C9FAE4CCFB2275F010EF2FFFEE33FEEDC8
:1008030033FDCC33CCC833C810D7079BEC9AE89997
:10081300400AED9BFDEC9AFCE899F80FD5F0DAE479
:10082300CDFBE4CCFAE4C8F922C3E49FFFE49EFEC7
:10083300E49DFDE49CFC22EB9FF5F0EA9E42F0E987
:100843009D42F0EC6480C864809845F022EB9FF5EC
:10085300F0EA9E42F0E99D42F0E89C45F022E86010
:100863000FECC313FCED13FDEE13FEEF13FFD8F1F2
:1008730022BB010789828A830209695005E9F802CC
:10088300095DBBFE05E9F802097589828A830209BD
:10089300817401FF3395E0FEFDFCA3A3A3E0CF2FFA
:1008A300F0E582158270021583E0CE3EF0E58215F5
:1008B3008270021583E0CD3DF0E58215827002154A
:1008C30083E0CC3CF022ECF0A3EDF0A3EEF0A3EF39
:1008D300F022A8828583F0D083D0821208EC12081C
:1008E300EC1208EC1208ECE473E493A3C583C5F09F
:1008F300C583C8C582C8F0A3C583C5F0C583C8C571
:1009030082C822F5F0C582A4C582C5F0C583A4259B
:1009130083F58322BB010789828A8302099A5005E2
:10092300E9F8020991BBFE05E9F80209A389828A65
:10093300830209ACD083D082F8E4937012740193DC
:10094300700DA3A393F8740193F5828883E4737401
:1009530002936860EFA3A3A380DFE6FC08E6FD082B
:10096300E6FE08E6FF22E0FCA3E0FDA3E0FEA3E031
:10097300FF22E2FC08E2FD08E2FE08E2FF22E49324
:10098300FC740193FD740293FE740393FF22E6FB50
:1009930008E6FA08E6F922E0FBA3E0FAA3E0F9226D
:1009A300E2FB08E2FA08E2F922E493FB740193FA0A
:1009B300740293F92243BA80E59D603178FAE6FB2D
:1009C300AF9FC3EF9BFFE49400FEE49400FDE49427
:1009D30000FC7BE07A287901780012070FE42FFFEF
:1009E300EE3451FEED3425FDEC3402802E78FBE627
:1009F300FBAF9FC3EF9BFFE49400FEE49400FDE490
:100A03009400FCE47B807ABBF9F812070FE42FFF14
:100A1300EE3436FEED346EFDEC3401FC9001F01241
:100A230008C99001F0E0FCA3E0FDA3E0FEA3E0FF12
:100A3300C00790FE01E0FBE4FAF9F8D00712079A29
:100A43009001F01208C97FC07EF67D577C009001AB
:100A5300F0E0F8A3E0F9A3E0FAA3E0FBC312085027
:100A630050097F007E607D547C00227FC07E267DFE
:100A7300827C009001F0E0F8A3E0F9A3E0FAA3E0A0
:100A8300FBC312085050097F807E8D7D5B7C002262
:100A93007F807EED7DAF7C009001F0E0F8A3E0F96C
:100AA300A3E0FAA3E0FBC312085050097F007EC005
:100AB3007DA87C00227F807E2D7DE87C009001F064
:100AC300E0F8A3E0F9A3E0FAA3E0FBC31208505057
:100AD300097F007E1B7DB77C00227F807E367D25CB
:100AE3007C019001F0E0F8A3E0F9A3E0FAA3E0FBB6
:100AF300C312085050097F007E407D197C01227F7C
:100B0300807E567D417C019001F0E0F8A3E0F9A3DB
:100B1300E0FAA3E0FBC312085050097F007E2D7D4D
:100B2300317C01227F007EDB7D5F7C019001F0E060
:100B3300F8A3E0F9A3E0FAA3E0FBC31208505009BD
:100B43007F007E807D517C01227F607E197D857CC4
:100B5300019001F0E0F8A3E0F9A3E0FAA3E0FBC3FE
:100B630012085050097F007E367D6E7C01227F2063
:100B73007EE07DB27C019001F0E0F8A3E0F9A3E010
:100B8300FAA3E0FBC312085050097FC07EFC7D9B93
:100B93007C01227FE07EA67DE07C019001F0E0F8FD
:100BA300A3E0F9A3E0FAA3E0FBC312085050097FC6
:100BB300807EC37DC97C01227F607E2B7DFF7C010B
:100BC3009001F0E0F8A3E0F9A3E0FAA3E0FBC3127D
:100BD300085050097F007E407DFA7C01227F607EB1
:100BE300477D247C029001F0E0F8A3E0F9A3E0FA4A
:100BF300A3E0FBC312085050097FC07E0E7D167C14
:100C030002227F007E6D7D4A7C029001F0E0F8A312
:100C1300E0F9A3E0FAA3E0FBC312085050097F00F8
:100C23007E807D327C02227F807EDE7D807C02900E
:100C330001F0E0F8A3E0F9A3E0FAA3E0FBC3120894
:100C43005050097F007E5A7D627C02227F807EE7BE
:100C53007DBD7C029001F0E0F8A3E0F9A3E0FAA3E4
:100C6300E0FBC31208505008E4FFFE7DA37C022280
:100C73007F007E6C7DDC7C0222ED6003020D1FEFA2
:100C830054F0F9FB7A007013EF540FFEF874010867
:100C93008002C333D8FCF452935294EB64104A702D
:100CA30013EF540FFEF87401088002C333D8FCF429
:100CB30052915292E964207013EF540FFEF87401BD
:100CC300088002C333D8FCF452955296E9FB7A00AC
:100CD30064307013EF540FFEF87401088002C333BD
:100CE300D8FCF452B152B2EB64404A7013EF540F84
:100CF300FEF87401088002C333D8FCF452B352B433
:100D0300E964506003020F2CEF540FFEF8740108DE
:100D13008002C333D8FCF452C952CA22ED64016085
:100D230003020DCFEF54F0F9FB7A007015EF540F67
:100D3300FEF87401088002C333D8FCFEF45293EE2C
:100D43004294EB64104A7015EF540FFEF8740108D7
:100D53008002C333D8FCFEF45291EE4292E9642040
:100D63007015EF540FFEF87401088002C333D8FCEA
:100D7300FEF45295EE4296E9FB7A0064307015EF6B
:100D8300540FFEF87401088002C333D8FCFEF452FA
:100D9300B1EE42B2EB64404A7015EF540FFEF874A3
:100DA30001088002C333D8FCFEF452B3EE42B4E927
:100DB30064506003020F2CEF540FFEF87401088097
:100DC30002C333D8FCFEF452C9020F29ED6402605A
:100DD30003020E80EF54F0F9FB7A007015EF540F05
:100DE300FEF87401088002C333D8FCFE4293EEF48C
:100DF3005294EB64104A7015EF540FFEF874010817
:100E03008002C333D8FCFE4291EEF45292E964208F
:100E13007015EF540FFEF87401088002C333D8FC39
:100E2300FE4295EEF45296E9FB7A0064307015EFBA
:100E3300540FFEF87401088002C333D8FCFE42B19C
:100E4300EEF452B2EB64404A7015EF540FFEF8749F
:100E530001088002C333D8FCFE42B3EEF452B4E976
:100E630064506003020F2CEF540FFEF874010880E6
:100E730002C333D8FCFE42C9EEF452CA22ED640326
:100E83006003020F2CEF54F0FD7C007014EF540F3D
:100E9300FEF87401088002C333D8FCFE4293EE428D
:100EA30094ED64104C7014EF540FFEF87401088035
:100EB30002C333D8FCFE4291EE4292EF54F0642019
:100EC3007014EF540FFEF87401088002C333D8FC8A
:100ED300FE4295EE4296EF54F0FD7C0064307014B0
:100EE300EF540FFEF87401088002C333D8FCFE42AE
:100EF300B1EE42B2ED64404C7014EF540FFEF8743F
:100F030001088002C333D8FCFE42B3EE42B4EF546F
:100F1300F064507014EF540FFEF87401088002C39C
:100F230033D8FCFE42C9EE42CA229001F0EFF0E44E
:100F33009001F9F0A3F043BA809001F0E0FF12139F
:100F4300A29001F1E0F8A3E0F9A3E0FAA3E0FB909B
:100F5300022FE0FCA3E0FDA3E0FEA3E0FF12079A4B
:100F630078101208619001F9EEF0A3EFF09001F10F
:100F7300E0F8A3E0F9A3E0FAA3E0FB90022FE0FC82
:100F8300A3E0FDA3E0FEA3E0FF12079AC006C0079B
:100F93009001FAE02401FF9001F9E03400AB07FA75
:100FA300E4F9F8D007D00612079AEF24FFFFEE34D6
:100FB300FF9001F7F0A3EFF09001F5E0FCA3E0FD53
:100FC300E41203C27B007A40791C78461202A7C060
:100FD30004C005C006C0079001F7E0FCA3E0FDE4F0
:100FE3001203C2D003D002D001D00012019E12031B
:100FF300FBAD07AC069001F0E0FFD374409F748013
:10100300F89840030210DF90FEB5C083C082E0FF72
:101013009001F0E0FEC4540F24FCF925E0FBF874C2
:1010230001088002C333D8FC4FD082D083F090FEF6
:10103300B6C083C082E0FFEE5403FEA8030880021B
:10104300C333D8FC4FD082D083F0E9C31324ECFF21
:10105300E434FE8F82F583C083C082E0FF9001F009
:10106300E0F9C4540FFE540125E025E0FBF87401B8
:10107300088002C333D8FC4FD082D083F0EE24E43F
:10108300FFE434FE8F82F583E04460F0E04408F02F
:101093009001F7E0FFA3E090FEF2CFF0A3EFF09012
:1010A30001F9E0FFA3E090FEF0CFF0A3EFF0E9C475
:1010B300540F24FCFFE434FFFEEF25E0FFEE33FE84
:1010C300EF24F5FFEE34FE8F82F583ECF0A3EDF011
:1010D30090FEFD7480F090FEE00211CB90FEB1C053
:1010E30083C082E0FB9001F0E0FA5401F97E0074C2
:1010F30001A801088005C333CE33CED8F9FFEAC473
:10110300540F25E0FAEFA802088005C333CE33CE8F
:10111300D8F94BD082D083F090FEB2C083C082E076
:10112300FF9001F0E05407C313FEA802088002C336
:1011330033D8FC4FD082D083F09001F0E0FFC4138A
:10114300540724CCFBE434FE8B82F583C083C08236
:10115300E0FEEFC4540FFF540125E025E0FBE92531
:10116300E02BFBF87401088002C333D8FC4ED08215
:10117300D083F0EF24C8FFE434FE8F82F583E0448C
:1011830060F0E04408F09001F7E0FFA3E090FED2A6
:10119300CFF0A3EFF09001F9E0FFA3E090FED0CFF2
:1011A300F0A3EFF09001F0E0C4540F75F002A42413
:1011B300D5FFE5F034FE8F82F583ECF0A3EDF090DC
:1011C300FEDD7480F090FEC07401F0229001F0EF18
:1011D300F0A3EDF0A3EBF0A3E0F8A3E0F9A3E0FAAA
:1011E300A3E0FB90022FE0FCA3E0FDA3E0FEA3E05D
:1011F300FF12079AE47B04FAF9F812079AC3E49FF3
:10120300FFE49EAD07FC9001F0E01470030212A806
:101213001470030212EB14700302134424036003DB
:101223000213A19001F7E0FB7A0064017014439864
:10123300508D8BECF58D438E40D28EE49001CAF035
:101243008011EB64024A700B4398508DD7ECF5D6AE
:10125300438E1553A23F9001F1E0F9FF7E00700821
:10126300A3E0640170028035EF64024E700D9001BB
:10127300F2E06403700543A2408022E96404700D28
:101283009001F2E06405700543A2808010E96406D2
:10129300700B9001F2E06407700343A2C0E4900175
:1012A300CAF0D2AC229001F7E06402700B439A10AB
:1012B3008DD7ECF5D6438E1453BAFE9001F1E0FFBF
:1012C3007E0064087008A3E0640970028011EF6473
:1012D3000A4E700B9001F2E0640B700343BA0143B2
:1012E300AF01E49001CBF0229001F7E0FB7A0064B8
:1012F30002700D43AC108DD7ECF5D6438E148011DC
:10130300EB64034A700B43AC508DD5ECF5D443D159
:101313000A53BAFD9001F1E0FF7E00640C7008A34C
:10132300E0640D70028011EF640E4E700B9001F2B9
:10133300E0640F700343BA0243AF08E49001CCF0BA
:10134300229001F7E0FB7A006402700D4384108D54
:10135300D7ECF5D6438E148011EB64044A700B432B
:1013630084508DD3ECF5D243D1A053BAFB9001F155
:10137300E0FF7E0064107008A3E064117002801621
:10138300EF64124E70109001F2E064137008F5CA16
:1013930075C90443BA0443AF10E49001CDF022EFC2
:1013A300120937142800142F01143602143D0314B4
:1013B3004404144B05145210145911146012146789
:1013C30013146E14147515147C20148321148A22AB
:1013D300149123149824149F2514A63014AD3114AA
:1013E300B33214B93314BF3414C53514CB3614D106
:1013F3003714D74014DD4114E34214E94314EF508A
:1014030014F55114FB52150153150760150D6115A1
:101413001362151963151F7014CB71152572152BE3
:1014230073000015327D017F1002152F7D017F119E
:1014330002152F7D017F2002152F7D017F210215CB
:101443002F7D017F6002152F7D017F6102152F7DA6
:10145300017F1202152F7D017F1302152F7D017F5E
:101463002202152F7D017F2302152F7D017F62024A
:10147300152F7D017F6302152F7D017F1402152F28
:101483007D017F1502152F7D017F2402152F7D011C
:101493007F2502152F7D017F6402152F7D017F6556
:1014A30002152F7D017F1602152F7D017F17807C8A
:1014B3007D017F2680767D017F2780707D017F6699
:1014C300806A7D017F6780647D017F34805E7D015A
:1014D3007F3380587D017F2080527D017F17804CB0
:1014E3007D01E4FF80467D017F7480407D017F2183
:1014F300803A7D017F5480347D017F01802E7D0100
:101503007F7580287D017F2280227D017F33801CAF
:101513007D017F0280167D017F7680107D017F2310
:10152300800A7D017F0380047D017F77120C7C227A
:101533009001ECE0FEA3E0FFC39001D1E09FFF9098
:1015430001D0E09EFE9001D4F0A3EFF09001E7E01C
:101553002FF09001E6E03EF0121CEDAC06AD07EC77
:101563001203C29001E2E0F8A3E0F9A3E0FAA3E0DA
:10157300FB12019EC004C005C006C0079001E6E04F
:10158300FCA3E0FDEC1203C2D003D002D001D000D3
:1015930012019EC004C005C006C0079001D4E0FC40
:1015A300A3E0FDEC1203C29001E8E0F8A3E0F9A385
:1015B300E0FAA3E0FB12019ED003D002D001D000D9
:1015C3001200ADC004C005C006C0079001D2E0FE02
:1015D300A3E0FFC39001D5E09FFD9001D4E09EFC02
:1015E3001203C29001DCE0F8A3E0F9A3E0FAA3E060
:1015F300FB12019EC004C005C006C0079001EEE0C7
:10160300FCA3E0FDEC1203C2A804A905AA06AB07DC
:10161300D007D006D005D0041202A7D003D002D041
:1016230001D0001200AD1203FB9001DAEEF0A3EF3C
:10163300F09001EDE02FFF9001ECE03E9001D6F039
:10164300A3EFF09001D4E0FFA3E09001D2CFF0A389
:10165300EFF0229001F0EBF0A3EAF0A3E9F0A3127C
:1016630008C978FB7C017D017BFF7A00797D7E00D0
:101673007F0212054C78FD7C017D017BFF7A0079A6
:101683007F7E007F0212054CE49001F7F0A3F090F7
:1016930001F7E0FEA3E0FFEE3395E0FDFC9001F3DC
:1016A300E0F8A3E0F9A3E0FAA3E0FBD3120850406B
:1016B300599001F0E0FBA3E0FAA3E0F99001F7E011
:1016C300FEA3E0FFF5828E831205ADFD9001F9E4E0
:1016D300F0A3EDF08F828E83A31205ADFF9001F787
:1016E300E0FCA3E0FDF5828C83EF1205EC9001F999
:1016F300A3E08D828C83A31205EC9001F8E0240211
:10170300F09001F7E03400F080857B017A0179FBEA
:10171300900203E4F0A37402F0E4FF121D8390012E
:10172300F0E0FBA3E0FAA3E0F9A3A3A3E0FFA3E0A7
:10173300900203CFF0A3EFF0E4FF121D837B017A45
:101743000179FD900203E4F0A37402F0E4FF021DAB
:10175300839001F1ECF0A3EDF09001F0EFF0D3747E
:10176300409F7480F8985063A3E0FCA3E0FDE4126B
:1017730003C27B007A40791C78461202A7C004C0DA
:1017830005C006C00790FEF2E0FCA3E0FDE41203EF
:10179300C2D003D002D001D00012019E1203FB90ED
:1017A30001F3EEF0A3EFF09001F3E0FCA3E0FD9072
:1017B30001F0E0C4540F24FCFFE434FFFEEF25E006
:1017C300FFEE33FEEF24F5FFEE80599001F1E0FCCC
:1017D300A3E0FDE41203C27B007A40791C78461231
:1017E30002A7C004C005C006C00790FED2E0FCA358
:1017F300E0FDE41203C2D003D002D001D0001201F5
:101803009E1203FB9001F3EEF0A3EFF09001F3E0DF
:10181300FCA3E0FD9001F0E0C4540F75F002A42492
:10182300D5FFE5F034FE8F82F583ECF0A3EDF022D3
:10183300787FE4F6D8FD75810702187A021931E43E
:1018430093A3F8E493A34003F68001F208DFF48046
:1018530029E493A3F85407240CC8C333C4540F4496
:1018630020C8834004F456800146F6DFE4800B0170
:1018730002040810204080901E2DE47E019360BC7A
:10188300A3FF543F30E509541FFEE493A360010E08
:10189300CF54C025E060A840B8E493A3FAE493A32F
:1018A300F8E493A3C8C582C8CAC583CAF0A3C8C550
:1018B30082C8CAC583CADFE9DEE780BEE47B107A4B
:1018C30027F9F890022FE0FCA3E0FDA3E0FEA3E0DC
:1018D300FF12079A900233EEF0A3EFF07B407A42B7
:1018E300790F780090022FE0FCA3E0FDA3E0FEA3B4
:1018F300E0FF12079AEF24FEFFEE34FF900235F06B
:10190300A3EFF07F007E1B7DB77C0090022FE0F8F1
:10191300A3E0F9A3E0FAA3E0FBD3120850500E9022
:101923000236E004F07006900235E004F022120063
:1019330056121A039001F11208D500002710E49003
:1019430001F5F0A3F07F34120F2DE4FF121C6D128A
:10195300005E1219A2C2C5121D579001ECEEF0A34E
:10196300EFF01215339001DAE0FCA3E0FDEC120373
:10197300C27B5C7A8F7912784012019E1203FB902E
:1019830001D9E02FF09001D8E03EF0E0FEA3E0FFA4
:10199300121DEB121E0D7F647E0012002680B6908E
:1019A30001EEE4F0A304F0E49001ECF0A3F0900165
:1019B300D07402F0A37458F09001E81208D53D4C9E
:1019C300CCCD9001E21208D5000000009001DC129A
:1019D30008D5000000009001E07401F0A3742CF01E
:1019E300E49001D2F0A3F09001E6F0A3F09001D6C9
:1019F300F0A3F09001D4F0A3F09001DAF0A3F02269
:101A030043FF101209B890022F1208C91218BFE43D
:101A1300F594F593F592F591F596F595F5B2F5B143
:101A2300F5B4F5B3F5CAF5C9F5CCF5CBF5E2F5E1B7
:101A3300F5DEF58EF598F59AF5ACF584F5A2F5BAD1
:101A4300F5AFF5899001F31208D50001C2009001AA
:101A5300F77402F07B01E4FDFF0211CFC0E0C0F098
:101A6300C083C082C0D075D000C000C001C002C016
:101A730003C004C005C006C007E58430E1085384F1
:101A8300FD9001CDE4F0E58430E0065384FE1200BE
:101A930046D007D006D005D004D003D002D001D061
:101AA30000D0D0D082D083D0F0D0E032AF06E0FBBC
:101AB300A3E475F0011206C1A9F0FA120594FDEF33
:101AC30014601514601D1460252403702D9001CA41
:101AD300E070FA04F08D99229001CBE070FA04F0E3
:101AE3008D9B229001CCE070FA04F08DAD22900121
:101AF300CDE070FA04F0AF058F8522C0E0C083C04B
:101B030082C0D075D000C007E59830E1085398FD36
:101B13009001CAE4F0E59830E0255398FEAF99EFC1
:101B2300647F7016900237E0FF04F0D3EF941474CF
:101B3300809480400A75C7608005900237E4F0D036
:101B430007D0D0D082D083D0E032E4900206F0D226
:101B5300A0C2A1C2A0D2A1D2A0C2A1F0900206E06D
:101B6300C39480748094805027C2A0E4FD7F0D123B
:101B73001D26900206E025E02401F582E43400F5F9
:101B830083EEF0A3EFF0D2A0900206E004F080CC45
:101B93009000007401F022EF14601714601E1460AB
:101BA3002714603024047037C28CE4F58CF58AD294
:101BB3008C22C28EE4F58DF58BD28E22538EEFE408
:101BC300F5D6F5D7438E102253D1F7E4F5D4F5D5E6
:101BD30043D1082253D17FE4F5D2F5D343D18022F8
:101BE300EF14601714601E14602514602C24047015
:101BF30030AF8CEFFCAF8AEFFD8026AF8DEFFCAFEB
:101C03008BEFFD801CAFD6EFFCAFD7EFFD8012AF9B
:101C1300D4EFFCAFD5EFFD8008AFD2EFFCAFD3EF2D
:101C2300FDAF05AE0422C2D5E830E70FB2D5E4C359
:101C33009BFBE49AFAE499F9E498F8EC30E717B2DD
:101C4300D5121C5F12079AE4C39BFBE49AFAE4994A
:101C5300F9E498F8800312079A30D50DE4C39FFF87
:101C6300E49EFEE49DFDE49CFC22EF1460181460E6
:101C73002014602614602C24047030E4F58AF58C5B
:101C8300438904D28C22E4F58BF58D438940D28EAF
:101C930022E4F5D7F5D6438E1822E4F5D5F5D443DF
:101CA300D10C22E4F5D3F5D243D1C022C0E0C0F079
:101CB300C083C082C0D075D000C000C001C002C0C4
:101CC30003C004C005C006C00753EFFB121B4DD071
:101CD30007D006D005D004D003D002D001D000D065
:101CE300D0D082D083D0F0D0E0329001ECE0FEA3DC
:101CF300E0FFC39001D1E09FFD9001D0E09EFC1274
:101D030003C21203FB120066D39001E1E09FEE646D
:101D130080F89001E0E06480987E0040037F002219
:101D23007F0122A90553BCF0EF42BC43BC40E5BC94
:101D330030E5FB53BCDFAFBDEFFEADBEEDFFE4F519
:101D4300BDF5BEAD01EFA805088005CEC313CE13C4
:101D5300D8F9FF22E4FF30B50E121BE3C3E49FFF63
:101D6300E49E9001F08007121BE39001F0EEF0A3D4
:101D7300EFF0E4FF121B9A9001F0E0FEA3E0FF22D4
:101D8300900200EBF0A3EAF0A3E9F0AE07900203A0
:101D930074FFF5F01206C145F06008900200121AB4
:101DA300AF80EA22C0E0C083C082E59A30E10853E5
:101DB3009AFD9001CBE4F0E59A30E003539AFED00C
:101DC30082D083D0E032C0E0C083C082E5AC30E192
:101DD3000853ACFD9001CCE4F0E5AC30E00353AC28
:101DE300FED082D083D0E032C3EF94B8EE940B40A0
:101DF300047E0B7FB8D3EF9400EE94005003E4FE0F
:101E0300FFAD07AC067F340217549001ECE0FFA34B
:101E1300E09001CECFF0A3EFF07B017A0179CE7F82
:101E2300027E007D007C0002165644022F00000053
:0C1E3300004202330000420235000000B3
:00000001FF
